:020000040800F2
:1000000000000220252B0008752B0008752B000826
:10001000752B0008752B0008752B000800000000E8
:10002000000000000000000000000000752B000828
:10003000752B000800000000752B0008752B0008C8
:10004000752B0008752B0008752B0008752B000810
:10005000752B0008752B0008752B0008752B000800
:10006000752B0008752B0008752B0008752B0008F0
:10007000752B0008752B0008752B0008752B0008E0
:10008000752B0008752B0008752B0008752B0008D0
:10009000752B0008752B0008752B0008752B0008C0
:1000A000752B0008752B0008752B0008752B0008B0
:1000B000752B0008752B0008752B0008752B0008A0
:1000C000752B0008752B0008752B0008752B000890
:1000D000752B0008752B0008752B0008752B000880
:1000E000752B0008752B0008752B0008752B000870
:1000F000752B0008752B0008752B0008752B000860
:10010000752B0008752B0008752B0008752B00084F
:10011000752B0008752B0008752B0008752B00083F
:10012000752B0008752B0008752B0008752B00082F
:10013000752B0008752B0008752B0008752B00081F
:10014000752B0008752B0008752B0008752B00080F
:10015000752B0008752B0008752B0008752B0008FF
:10016000752B0008752B0008752B0008752B0008EF
:10017000752B0008752B0008752B0008752B0008DF
:08018000752B0008752B000827
:1001900010B5054C237833B9044B13B10448AFF3C1
:1001A00000800123237010BD7000002000000000BB
:1001B0007034000808B5034B1BB103490348AFF383
:1001C000008008BD000000007400002070340008AA
:1001D000034613F8012B002AFBD1181A0138704787
:1001E00001F0FF01102A2BDB10F0070F08D010F8E8
:1001F000013B013A8B422DD010F0070F42B3F6D1EC
:10020000F0B441EA012141EA014122F007047FF004
:1002100000070023F0E80256083C85EA010586EA5B
:10022000010685FA47F5A3FA87F586FA47F6A5FA97
:1002300087F68EB9EED1F0BC01F0FF0102F00702A3
:1002400032B110F8013B013A83EA010313B1F8D14E
:100250000020704701387047002D06BF354603382F
:10026000073815F0010F07D1013015F4807F02BF68
:10027000013015F4C03F0130F0BC0138704700BFB9
:1002800070B54FF0FF0C4CF4E06C1CEA11541DBF2C
:100290001CEA135594EA0C0F95EA0C0F00F0DEF8F7
:1002A0002C4481EA030621EA4C5123EA4C5350EADC
:1002B000013518BF52EA033541F4801143F480132D
:1002C00038D0A0FB02CE4FF00005E1FB02E506F0BE
:1002D0000042E0FB03E54FF00006E1FB03569CF013
:1002E000000F18BF4EF0010EA4F1FF04B6F5007F19
:1002F00064F5407404D25FEA4E0E6D4146EB06068B
:1003000042EAC62141EA55514FEAC52040EA5E5013
:100310004FEACE2EB4F1FD0C88BFBCF5E06F1ED8BD
:10032000BEF1004F08BF5FEA500E50F1000041EBF4
:10033000045170BD06F0004646EA010140EA0200A1
:1003400081EA0301B4EB5C04C2BFD4EB0C0541EAC3
:10035000045170BD41F480114FF0000E013C00F3D8
:10036000AB8014F1360FDEBF002001F0004170BDFC
:10037000C4F10004203C35DA0C341BDC04F1140415
:10038000C4F1200500FA05F320FA04F001FA05F2A1
:1003900040EA020001F0004221F0004110EBD3706E
:1003A00021FA04F642EB06015EEA430E08BF20EA9A
:1003B000D37070BDC4F10C04C4F1200500FA04F33D
:1003C00020FA05F001FA04F240EA020001F00041CF
:1003D00010EBD37041F100015EEA430E08BF20EA42
:1003E000D37070BDC4F1200500FA05F24EEA020E8A
:1003F00020FA04F301FA05F243EA020321FA04F0B9
:1004000001F0004121FA04F220EA020000EBD3706F
:100410005EEA430E08BF20EAD37070BD94F0000F6F
:100420000FD101F00046400041EB010111F4801FA3
:1004300008BF013CF7D041EA060195F0000F18BF54
:10044000704703F00046520043EB030313F4801F90
:1004500008BF013DF7D043EA0603704794EA0C0F4A
:100460000CEA135518BF95EA0C0F0CD050EA410660
:1004700018BF52EA4306D1D181EA030101F00041DD
:100480004FF0000070BD50EA410606BF1046194605
:1004900052EA430619D094EA0C0F02D150EA013611
:1004A00013D195EA0C0F05D152EA03361CBF104652
:1004B00019460AD181EA030101F0004141F0FE41F1
:1004C00041F470014FF0000070BD41F0FE4141F475
:1004D000780170BD81F0004102E000BF83F000436D
:1004E00030B54FEA41044FEA430594EA050F08BFCF
:1004F00090EA020F1FBF54EA000C55EA020C7FEA93
:10050000645C7FEA655C00F0E2804FEA5454D4EB0F
:100510005555B8BF6D420CDD2C4480EA020281EAD9
:10052000030382EA000083EA010180EA020281EA11
:100530000303362D88BF30BD11F0004F4FEA013163
:100540004FF4801C4CEA113102D0404261EB410172
:1005500013F0004F4FEA03334CEA133302D05242F8
:1005600063EB430394EA050F00F0A780A4F10104B4
:10057000D5F1200E0DDB02FA0EFC22FA05F28018EE
:1005800041F1000103FA0EF2801843FA05F35941D4
:100590000EE0A5F120050EF1200E012A03FA0EFC53
:1005A00028BF4CF0020C43FA05F3C01851EBE3717D
:1005B00001F0004507D54FF0000EDCF1000C7EEB9A
:1005C00000006EEB0101B1F5801F1BD3B1F5001FD8
:1005D0000CD349085FEA30004FEA3C0C04F10104F7
:1005E0004FEA445212F5800F80F09A80BCF1004F20
:1005F00008BF5FEA500C50F1000041EB045141EAA2
:10060000050130BD5FEA4C0C404141EB0101013C6A
:1006100028BFB1F5801FE9D291F0000F04BF014659
:100620000020B1FA81F308BF2033A3F10B03B3F12B
:1006300020020CDA0C3208DD02F1140CC2F10C02BB
:1006400001FA0CF021FA02F10CE002F11402D8BF19
:10065000C2F1200C01FA02F120FA0CFCDCBF41EAE5
:100660000C019040E41AA2BF01EB0451294330BDB4
:100670006FEA04041F3C1CDA0C340EDC04F1140491
:10068000C4F1200220FA04F001FA02F340EA030068
:1006900021FA04F345EA030130BDC4F10C04C4F1AE
:1006A000200220FA02F001FA04F340EA030029468E
:1006B00030BD21FA04F0294630BD94F0000F83F4D8
:1006C000801306BF81F480110134013D4EE77FEABB
:1006D000645C18BF7FEA655C29D094EA050F08BF07
:1006E00090EA020F05D054EA000C04BF19461046E8
:1006F00030BD91EA030F1EBF0021002030BD5FEA2C
:10070000545C05D14000494128BF41F0004130BD53
:1007100014F580043CBF01F5801130BD01F00045A7
:1007200045F0FE4141F470014FF0000030BD7FEA1A
:10073000645C1ABF194610467FEA655C1CBF0B4615
:10074000024650EA013406BF52EA033591EA030F2C
:1007500041F4002130BD00BF90F0000F04BF002124
:10076000704730B54FF4806404F132044FF0000557
:100770004FF0000150E700BF90F0000F04BF0021D0
:10078000704730B54FF4806404F1320410F0004536
:1007900048BF40424FF000013EE700BF42004FEA31
:1007A000E2014FEA31014FEA02701FBF12F07F43AE
:1007B00093F07F4F81F06051704732F07F4208BF65
:1007C000704793F07F4F04BF41F40021704730B56C
:1007D0004FF4607401F0004521F000411CE700BFB8
:1007E00050EA010208BF704730B54FF000050AE03B
:1007F00050EA010208BF704730B511F0004502D53C
:10080000404261EB41014FF4806404F132045FEA3D
:10081000915C3FF4D8AE4FF003025FEADC0C18BFE6
:1008200003325FEADC0C18BF033202EBDC02C2F1D8
:10083000200300FA03FC20FA02F001FA03FE40EA6A
:100840000E0021FA02F11444BDE600BF4FEA410256
:10085000B2F1E04324BFB3F5001CDCF1FE5C0DD91E
:1008600001F0004C4FEAC0024CEA5070B2F1004F68
:1008700040EB830008BF20F00100704711F0804F6B
:1008800021D113F13872BCBF01F00040704741F430
:1008900080114FEA5252C2F11802C2F1200C10FA34
:1008A0000CF320FA02F018BF40F001004FEAC12318
:1008B0004FEAD32303FA0CFC40EA0C0023FA02F3BC
:1008C0004FEA4303CCE77FEA625307D150EA013392
:1008D0001EBF4FF0FE4040F44000704701F0004062
:1008E00040F0FE4040F40000704700BF53B94AB9E1
:1008F000002908BF00281CBF4FF0FF314FF0FF3028
:1009000000F06EB9ADF1080C6DE904CE00F006F808
:10091000DDF804E0DDE9022304B070472DE9F0477B
:10092000089D04468C46002B40F083808A4217467F
:1009300047D9B2FA82F242B1C2F1200024FA00F0A3
:100940009140974040EA010C94404FEA1748230C2D
:10095000BCFBF8F61FFA87FE08FB16C143EA014309
:1009600006FB0EF1994209D9FB1806F1FF3080F021
:100970001981994240F21681023E3B445B1AA4B2AF
:10098000B3FBF8F008FB103344EA034400FB0EFE0F
:10099000A64509D93C1900F1FF3380F00581A64531
:1009A00040F2028102383C4440EA0640A4EB0E04C7
:1009B00000261DB1D4400023C5E900433146BDE8FF
:1009C000F08702B9FFDEB2FA82F2002A50D1CB1BC7
:1009D0004FEA174E1FFA87F80126B3FBFEFC210CE5
:1009E0000EFB1C3341EA034108FB0CF38B4207D991
:1009F00079180CF1FF3002D28B4200F2E980844674
:100A0000C91AA3B2B1FBFEF00EFB101143EA014478
:100A100008FB00F8A04507D93C1900F1FF3302D2CA
:100A2000A04500F2D9801846A4EB080440EA0C4027
:100A3000BFE78B4209D9002D00F0B1800026C5E93F
:100A4000000130463146BDE8F087B3FA83F6002E48
:100A50004AD18B4202D3824200F2B880841A61EB01
:100A6000030101208C46002DA8D0C5E9004CA5E764
:100A7000C2F1200320FA03F6974001FA02F04FEA90
:100A8000174ED9403043030CB1FBFEF61FFA87F82E
:100A90000EFB161143EA014306FB08F1994204FAE2
:100AA00002F409D9FB1806F1FF3C80F08D809942D1
:100AB00040F28A80023E3B445B1A81B2B3FBFEF0F7
:100AC0000EFB103341EA034100FB08F38B4207D9C8
:100AD000791800F1FF3C73D28B4271D90238394446
:100AE000CB1A40EA064678E7C6F1200C03FA06F472
:100AF00022FA0CF31C4320FA0CF701FA06F34FEA32
:100B0000144E21FA0CF11F433B0CB1FBFEF91FFA06
:100B100084F80EFB191143EA014109FB08FA8A45E2
:100B200002FA06F200FA06F308D9611809F1FF305B
:100B300048D28A4546D9A9F102092144A1EB0A010C
:100B4000BFB2B1FBFEF00EFB101147EA014700FBFC
:100B500008F8B84507D9E71900F1FF312ED2B8459A
:100B60002CD90238274440EA0940A7EB0807A0FB2C
:100B700002894F45C64649461AD317D05DB1B3EB3B
:100B80000E0267EB010707FA0CFCF2404CEA020286
:100B9000F740C5E9002700263146BDE8F0872E461C
:100BA00028460BE70646E9E61846FDE64345E5D24A
:100BB000B8EB020E69EB04010138DFE70846D2E723
:100BC00060468DE78146B9E7664675E730464AE7F5
:100BD000ACF1020C394413E702383C4424E700BF6F
:100BE000704700BF2DE9F04188B000240094264BE7
:100BF0001A6B42F001021A631A6B02F001020092B2
:100C0000009A01941A6B42F004021A631A6B02F004
:100C100004020192019A02941A6B42F040021A6394
:100C20001B6B03F040030293029B042303934FF0DA
:100C30000208CDF81080059403250695082607962E
:100C4000124F03A9384600F017FF0396CDF8108025
:100C500005940695079603A9384600F00DFF4FF45A
:100C6000807603960123049305940695084D03A905
:100C7000284600F001FF22463146284600F0E6FFF4
:100C800008B0BDE8F08100BF00380240000002401B
:100C90000018024072B6FEE700B595B03022002180
:100CA00008A801F08DFF0023039304930593069396
:100CB00007930193214A116C41F080511164126C29
:100CC00002F080520192019A02931D4B1A6842F47D
:100CD00080421A601B6803F480430293029B012345
:100CE00008934FF48033099302230E934FF480024C
:100CF0000F92082210924FF4A872119212930723B8
:100D0000139308A800F0AAFF98B90F2303930223B6
:100D10000493002305934FF4A05306934FF480539C
:100D20000793052103A801F0E5F920B915B05DF896
:100D300004FBFFF7AFFFFFF7ADFF00BF0038024035
:100D40000070004008B50A480A4B03604FF4E133D5
:100D5000436000238360C36003610C2242618361AE
:100D6000C36101F03EFE00B908BDFFF793FF00BF6D
:100D7000AC050020004C004070B5C4B000F0D2FBC0
:100D8000FFF78AFFFFF72EFFFFF7DCFF00F066F9A1
:100D900039AC1F4D0FCD0FC40FCD0FC495E8070020
:100DA00003C424F8022B120C227039A8FFF710FAA2
:100DB0004FF47A7382B239A9164801F042FE00F06E
:100DC00053FB00F071FB10EE104A00F073FB054678
:100DD00000F076FB064600F079FB0490039602953E
:100DE0002046FFF7DBFCCDE900010B4AC82107A82C
:100DF00001F0EEFE07A8FFF7EBF94FF47A7382B229
:100E000007A9044801F01DFE642000F0ABFBD6E703
:100E1000C0340008AC0500208834000802680F4B7D
:100E20009A4200D0704782B00021009103F5F6335A
:100E30001A6C42F400221A641A6C02F40022009226
:100E4000009A01911A6B42F001021A631B6B03F0C6
:100E500001030193019B02B0704700BF004C0040AA
:100E600070B588B0002400943C4B5A6C42F00202EA
:100E70005A645A6C02F002020092009A01941A6CB1
:100E800042F001021A641A6C02F001020192019A06
:100E900002941A6B42F400121A631A6B02F40012E5
:100EA0000292029A03941A6B42F480021A631B6B3B
:100EB00003F480030393039B29482A4B0360446097
:100EC00084601423C3600461446101F00DFB264D6E
:100ED0004FF080432B606C60AC604FF0FF33EB60F1
:100EE0002C61284601F000FB0A230493012305939B
:100EF000069407940C2204A9284601F067FB1B48BE
:100F00001B4B03604FF06063436040238360C46009
:100F10004FF4806606614FF4805343614FF4804381
:100F20008361C4614FF440350562446200F00AFCFD
:100F30001048114B03604FF0C06343608460C4608D
:100F400006614FF4006343614FF400538361C46151
:100F50000562446200F0F6FB08B070BD0038024044
:100F6000FC06002000040140B406002054060020C6
:100F700028640240F4050020B860024030B4B0B0EC
:100F800020AC344D0FCD0FC40FCD0FC40FCD0FC407
:100F900095E80F0007C42370002211460CE04B1C9B
:100FA00030A80844302400F8BC4C30A80344023177
:100FB000312003F8BC0C013230AB134413F8403C31
:100FC00083B1302BEBD0312BF5D14B1C30A808442A
:100FD000312400F8BC4C30A803440231302003F81F
:100FE000BC0CE8E730AB1944002201F8BC2C1A4BCA
:100FF000C3F810250AE0184BD3F81015481CC3F8A5
:1010000010054FF4802043F82100013230AB134427
:1010100013F8BC3C6BB1302BEDD0312BF5D10E4B1E
:10102000D3F81015481CC3F81005042043F821001C
:10103000EBE7094AD2F81035581C4FF4802142F8EA
:1010400023100233C2F8103542F8201030B030BC03
:10105000704700BFEC3400088C00002008B5074B37
:1010600093F80C3503B108BDFFF7FAFEFFF786FFD2
:10107000024B012283F80C25F5E700BF8C0000200D
:10108000F0B587B001224FF48071234800F0DEFDF7
:10109000002505950423019301230293039503275B
:1010A000049701A91D4800F0E7FC1D4E304601F0F1
:1010B0009FF91C4C204600F0ABFB1B4B2360656086
:1010C0004023A360E5604FF4806323614FF48053B5
:1010D00063614FF48043A361E5614FF40033236201
:1010E0006562A762E5622563204600F02BFB34624F
:1010F000A6630E49D1F810350D4A204600F0BAFB20
:101100003368DA6842F48072DA605D62304601F07A
:1011100031F907B0F0BD00BF0018024000000240E6
:10112000FC06002054060020106002408C000020C5
:1011300018000240F0B58BB000224FF480712B48AC
:1011400000F084FD082305930223069300250795EC
:10115000032608960127099705A9254800F08CFC6D
:10116000244C204600F054FB234B23604FF0C06317
:101170006360A560E5604FF4806323614FF48053A2
:1011800063614FF48043A361E5614FF40033236250
:101190006562A662E5622563204600F0D3FA174E29
:1011A0003463A6634FF49673154A1649204600F03F
:1011B00061FB304601F01CF90A2301930297039565
:1011C00004950C2201A9304601F000FA3368DA6870
:1011D00042F48052DA605D621D64304601F0CAF864
:1011E0000C21304601F066FA0BB0F0BD0018024049
:1011F00000000240F405002028600240B4060020F0
:1012000022030020400000404FF6FF70704730B4CA
:1012100000250DE040080133072B07DC10F0010F1B
:10122000F8D04AF2010484EA5000F4E70135ADB287
:10123000954203D24B5D58400023EDE730BC704728
:101240007047000000000000F8B5834B5E68C6F5EB
:1012500096764F2E06DC814AD2F800350133C2F86B
:101260000035F8BD7D4B0025C3F8EE54C3F8F254A9
:10127000C3F8F654A3F8FA54012203E00A2D18D05B
:1012800000251A46741E944212DD531C734802F264
:10129000491100EB4101C98889B202F5A47200EB43
:1012A0004202D28892B28A1A0E2AE7DC0135E8E7B8
:1012B00000231BB10026304635461DE0674AD2F8B0
:1012C00000350133C2F80035CBE7644AD2F8003567
:1012D0000133C2F80035C4E7C5F10105012D36D050
:1012E000052E7ED0062E55D05C4A0244302182F86D
:1012F00000120130002601339C4251DD94284FDC5E
:101300005F1C564903F2491201EB4202D28892B2A5
:1013100003F5A47C01EB4C01C98889B2521A0E2A4C
:10132000DADCBC423CDD4D4A03F5A57302EB430316
:10133000DB889BB207F5A47102EB4102D28892B21E
:101340009B1A0E2BC1DDC5F101053B46C6E70136F0
:10135000424A0244312182F800126F2815DC84468B
:10136000002814DB474200F0070207F0070758BFC8
:101370007A42C2F1070201279740384901EBEC019C
:1013800091F8EE243A4381F8EE240130B3E700F1FE
:10139000070CE7E7314B0344482283F80022013071
:1013A0002E4B0344002283F800226F287FF759AFA9
:1013B0002A4D95F8FB4495F8FA3444EA0324FFF7E4
:1013C00023FF0C2205F2EE41FFF721FFFFF738FF64
:1013D000844208D0214AD2F808350133C2F80835D2
:1013E0003FE7002687E7D5F804350133C5F8043513
:1013F0000023184600E001330E2B0CDC03F1400102
:10140000164A0A4492F80022D2B2312AF3D10122BC
:101410009A401043EFE707EE900AF8EE677A9FEDE7
:10142000107A67EE877A77EEA77A17EE900AFFF7C1
:10143000B5F907A3D3E90023FEF722FF04A3D3E9FC
:101440000023FFF74BF8FFF701FA064B186008E797
:10145000182D4454FB210940B86002408C00002044
:10146000000000388805002008B50D4B93F80C35B6
:10147000ABB14FF080435A6A40F6E3439A42F8D941
:10148000FFF7FEFD4FF0FF320021064800F060FA42
:10149000FFF750FE0A2000F065F8FFF7D5FE08BD03
:1014A0008C00002054060020014B93ED000A704789
:1014B00088050020014BD3F8000570478C00002000
:1014C000014BD3F8040570478C000020014BD3F882
:1014D000080570478C00002010B504460E4B1878A4
:1014E0004FF47A73B3FBF0F30C4A1068B0FBF3F0DF
:1014F00000F092F868B90F2C01D901200AE000220F
:1015000021464FF0FF3000F053F8054B1C600020DF
:1015100000E0012010BD00BF0000002008000020F6
:101520000400002008B50B4B1A6842F400721A60E0
:101530001A6842F480621A601A6842F480721A6073
:10154000032000F023F80F20FFF7C6FF00F084FB14
:10155000002008BD003C0240014B1868704700BFE6
:101560004407002038B50446FFF7F6FF0546B4F1FE
:10157000FF3F02D0044B1B781C44FFF7EDFF401BDC
:10158000A042FAD338BD00BF00000020074AD3684C
:1015900023F4E0631B041B0C000200F4E06003432F
:1015A00043F0BF6343F40033D360704700ED00E0C5
:1015B00030B4174BDB68C3F30223C3F10704042CD8
:1015C00028BF04241D1D062D18D9033B4FF0FF35FD
:1015D00005FA04F421EA0401994005FA03F322EA2A
:1015E0000303194300280BDB0901C9B200F1604075
:1015F00000F5614080F8001330BC70470023E5E738
:1016000000F00F000901C9B2024B1954F4E700BF02
:1016100000ED00E014ED00E00138B0F1807F0AD267
:10162000064B5860064AF02182F82310002098608B
:1016300007221A6070470120704700BF10E000E0E9
:1016400000ED00E030B405682C6824F480242C60A0
:10165000046863608368402B05D003689960036861
:10166000DA6030BC704703689A600368D960F8E7B5
:1016700010B40368D9B210390C4AA2FB0142120916
:101680000B4CA25CC2655F2909D923F47F7323F058
:10169000030304338365806D5DF8044B704723F4C6
:1016A0007F7323F003038365F5E700BFABAAAAAA03
:1016B0002C350008836A826992B9012B0AD0022B6B
:1016C00002D00BB100207047C36A13F0807F28D18D
:1016D00000207047C36AB3F1C07F24D00020704758
:1016E000B2F5005F09D0022B25D9032B25D1C36A9F
:1016F00013F0807F23D100207047032B03D8DFE84D
:1017000003F01404140A00207047C36A13F0807FAA
:101710000DD100207047C36AB3F1C07F09D000200B
:101720007047012070470120704701207047012059
:10173000704701207047012070470020704701204A
:101740007047000070B50446FFF706FF002C5BD021
:101750000546022384F83530002384F834302268AB
:10176000136823F00103136023681A6812F0010F55
:101770000AD0FFF7F1FE431B052BF5D92023636543
:10178000032084F8350070BD1A6820481040616855
:10179000A2680A43E1680A4321690A4361690A436E
:1017A000A1690A43E1690A43216A0A430243616A63
:1017B00004291ED01A602668756925F00705636A3A
:1017C0001D43042B07D1A36A1D43E36A1BB12046C6
:1017D000FFF770FF90B975612046FFF749FFE26D92
:1017E0003F239340836000206065012384F83530F7
:1017F000C9E7E16A206B01430A43DBE740236365E5
:10180000012084F83500BEE70120BCE73F8010F0DE
:1018100000282DD038B5054690F83500C0B2022812
:1018200025D02A68136823F0010313602B68002475
:101830001C602B685C602B689C602B68DC602B68EC
:101840001C612B6821225A612846FFF711FFEC63C7
:101850002C646C64AC64EC642C65EA6D3F239340AB
:1018600083606C6585F8354085F83440204638BD86
:101870000120704738B5044690F8340001281BD089
:10188000012084F8340094F83500C0B2012804D057
:10189000002384F83430022038BD022084F835005B
:1018A000002565652046FFF7CDFE2268136843F0EA
:1018B000010313602846EFE70220EDE770B5044608
:1018C000866DFFF749FE94F83530DBB2022B06D067
:1018D00080236365002384F83430012070BD054601
:1018E0002268136823F0160313602268536923F0FB
:1018F00080035361236CE3B12268136823F008036B
:1019000013602268136823F00103136023681B68C7
:1019100013F0010F11D0FFF71FFE431B052BF5D964
:1019200020236365032084F83500002384F83430D5
:10193000D4E7A36C002BDFD1E3E7E26D3F239340B4
:10194000B360012384F83530002084F83400C5E703
:101950002DE9F047044688461646FFF7FDFD94F84A
:101960003530DBB2022B07D080236365002384F877
:1019700034300120BDE8F087814623681B6813F4EA
:10198000807F3BD1B8F1000F3DD1E36D4FF0200ACD
:101990000AFA03FAA76D3B681AEA030F43D1636D95
:1019A00013F0010F3FD1B6F1FF3F07D0002E30D02A
:1019B000FFF7D2FDA0EB0900B0422AD83B68E16DE9
:1019C00008228A401A4204D0616D41F0010161652C
:1019D000BA60E16D01228A401A4204D0616D41F083
:1019E00002016165BA60E26D042595401D42D3D0C5
:1019F000626D42F004026265BD60CDE74FF4807312
:101A000063650120B6E7E36D4FF0100A0AFA03FAA6
:101A1000C0E720236365012384F83530002384F870
:101A200034300320A6E7636D1BB1636D13F0010F23
:101A30000ED1B8F1000F19D1E26D30239340BB6095
:101A4000012384F83530002384F83430404691E790
:101A50002046FFF733FFE26D30239340BB60012047
:101A600084F83500002384F8343083E7E26D1023D6
:101A70009340BB6000207DE700230F2B00F2DD8048
:101A8000F0B482B05DE086685F000324BC4026EAC3
:101A90000406CC68BC4034438460466826EA0206EB
:101AA0004C68C4F300129A403243426057E0DC08AD
:101AB000083450F8247003F0070296000F22B24059
:101AC00027EA02070A69B2403A4340F824205AE064
:101AD000072200E00022B2403A430234574E46F853
:101AE0002420574A9468EA4324EA05064F6817F40D
:101AF000801F01D045EA0406514CA660E46802EA62
:101B000004064F6817F4001F01D045EA04064C4C48
:101B1000E660646802EA04064F6817F4003F01D0EB
:101B200045EA0406464C6660246822404E6816F476
:101B3000803F01D045EA0402414C226001330F2B63
:101B400078D801229A400C6804EA020532EA0404BB
:101B5000F4D14C6804F00304013C012C93D94A6889
:101B600002F00302032A09D0C4685E000322B240D7
:101B700024EA02048A68B2402243C2604A6802F042
:101B80000302022A93D004685E000322B24024EAD2
:101B900002044A6802F00302B240224302604A682B
:101BA00012F4403FCAD000220192264A546C44F4F9
:101BB00080445464526C02F480420192019A9C0861
:101BC000A61C1E4A52F8267003F0030296000F224C
:101BD000B24027EA02071C4A90423FF47BAF02F56D
:101BE000806290421AD002F58062904218D002F5CD
:101BF0008062904216D002F58062904214D002F5C5
:101C00008062904212D002F58062904210D002F5BC
:101C1000806290423FF45CAF08225CE701225AE701
:101C2000022258E7032256E7042254E7052252E72E
:101C3000062250E702B0F0BC704770470038014000
:101C4000003C014000380240000002400AB18161BE
:101C5000704709048161704770470000002800F058
:101C6000DF8170B582B00446036813F0010F3BD0EA
:101C7000A64B9B6803F00C03042B2CD0A34B9B6852
:101C800003F00C03082B21D06368B3F5803F4FD0DD
:101C9000B3F5A02F52D09D4B1A6822F480321A60FF
:101CA0001A6822F480221A606368002B50D0FFF774
:101CB00053FC0546954B1B6813F4003F14D1FFF706
:101CC0004BFC401B6428F5D90320B0E18F4B5B68C7
:101CD00013F4800FD8D08D4B1B6813F4003F03D052
:101CE0006368002B00F09E81236813F0020F54D02C
:101CF000864B9B6813F00C0F3ED0844B9B6803F01F
:101D00000C03082B33D0E368002B67D0804B0122F3
:101D10001A60FFF721FC05467C4B1B6813F0020F8D
:101D200053D1FFF719FC401B0228F5D903207EE1AF
:101D3000764A136843F480331360B5E7734B1A682F
:101D400042F480221A601A6842F480321A60ABE7CB
:101D5000FFF702FC05466D4B1B6813F4003FC3D030
:101D6000FFF7FAFB401B6428F5D903205FE1674BBE
:101D70005B6813F4800FC6D1644B1B6813F0020F2D
:101D800003D0E368012B40F04F81604A136823F0D1
:101D9000F803216943EAC1031360236813F0080FB5
:101DA00040D0636963B35B4B01221A60FFF7D4FB39
:101DB0000546564B5B6F13F0020F33D1FFF7CCFB98
:101DC000401B0228F5D9032031E1504A136823F063
:101DD000F803216943EAC1031360DEE74C4B00229C
:101DE0001A60FFF7B9FB0546484B1B6813F0020F5A
:101DF000D3D0FFF7B1FB401B0228F5D9032016E131
:101E0000444B00221A60FFF7A7FB05463F4B5B6F70
:101E100013F0020F06D0FFF79FFB401B0228F5D9F5
:101E2000032004E1236813F0040F78D0374B1B6CB8
:101E300013F0805F0DD100230193344B1A6C42F0F4
:101E400080521A641B6C03F080530193019B01259F
:101E500000E00025304B1B6813F4807F21D0A3687D
:101E6000012B32D0052B36D0284B1A6F22F00102FD
:101E70001A671A6F22F004021A67A368002B34D085
:101E8000FFF76AFB0646214B1B6F13F0020F45D18B
:101E9000FFF762FB801B41F288339842F3D903209D
:101EA000C5E01D4A136843F480731360FFF754FBC9
:101EB0000646194B1B6813F4807FD0D1FFF74CFB0B
:101EC000801B0228F5D90320B1E0104A136F43F0BC
:101ED00001031367D1E70D4B1A6F42F004021A6732
:101EE0001A6F42F001021A67C7E7FFF735FB064693
:101EF000064B1B6F13F0020F10D0FFF72DFB801B5A
:101F000041F288339842F3D9032090E00038024030
:101F100000004742800E474200700040EDB9A369BF
:101F2000002B00F08380494A926802F00C02082AD4
:101F300051D0022B17D0464B00221A60FFF70CFB42
:101F40000446424B1B6813F0007F42D0FFF704FBAE
:101F5000001B0228F5D9032069E03C4A136C23F0EA
:101F600080531364DBE73A4B00221A60FFF7F4FA60
:101F70000546364B1B6813F0007F06D0FFF7ECFADE
:101F8000401B0228F5D9032051E0E369226A13437C
:101F9000626A43EA8213A26A5208013A43EA0243A0
:101FA000E26A43EA0263294A5360294B01221A601C
:101FB000FFF7D2FA0446254B1B6813F0007F06D1C9
:101FC000FFF7CAFA001B0228F5D903202FE00020F2
:101FD0002DE000202BE0012B2BD01C4B5B6803F481
:101FE0008001E269914226D103F03F02216A8A42D0
:101FF00023D1616A47F6C0721A40B2EB811F1ED12D
:1020000003F44031A26A5208013AB1EB024F18D1F1
:1020100003F07063E26AB3EB026F14D1002006E0B4
:1020200001207047012002E0012000E0002002B002
:1020300070BD0120FBE70120F9E70120F7E701204F
:10204000F5E70120F3E70120F1E700BF0038024087
:1020500060004742F8B5244B9B6803F00C03042B47
:102060003DD0082B3DD1204B5A6802F03F025B68FF
:1020700013F4800F12D01C4B5968C1F38811002350
:102080001A48A1FB0001FEF731FC174B5B68C3F354
:10209000014301335B00B0FBF3F023E0124B5B68BC
:1020A000C3F388135C010025E41A65F10005AE0155
:1020B00046EA9466A701381B66EB0501CC0044EAAA
:1020C0005074C500E81844F100018B0243EA9053B4
:1020D0008402204619460023FEF708FCD5E7034892
:1020E00000E00348F8BD00BF0038024040787D01A1
:1020F0000024F400002800F09B8070B50D460446D3
:102100004F4B1B6803F007038B4208D2CBB24C4AFB
:102110001370136803F007038B4240F08B80236831
:1021200013F0020F17D013F0040F04D0454A936840
:1021300043F4E0539360236813F0080F04D0414A3E
:10214000936843F4604393603E4A936823F0F0033E
:10215000A1680B439360236813F0010F32D06368CA
:10216000012B21D09A1E012A25D9364A126812F075
:10217000020F61D033498A6822F0030213438B6057
:10218000FFF7EAF906462F4B9B6803F00C036268E1
:10219000B3EB820F16D0FFF7DFF9801B41F28833D3
:1021A0009842F0D9032042E0264A126812F4003F18
:1021B000E0D101203BE0234A126812F0007FD9D120
:1021C000012034E01E4B1B6803F00703AB4207D924
:1021D000EAB21B4B1A701B6803F00703AB422DD108
:1021E000236813F0040F06D0164A936823F4E053D3
:1021F000E1680B439360236813F0080F07D0114A7E
:10220000936823F46043216943EAC1039360FFF7B5
:1022100021FF0C4B9B68C3F303130B4AD35CD840DC
:102220000A4B18600A4B1868FFF756F9002070BD7A
:10223000012070470120FAE70120F8E70120F6E7C6
:10224000003C0240003802403435000808000020FD
:1022500004000020014B1868704700BF08000020F0
:1022600008B5FFF7F7FF044B9B68C3F38223034ACB
:10227000D35CD84008BD00BF003802404435000898
:1022800008B5FFF7E7FF044B9B68C3F34233034AEB
:10229000D35CD84008BD00BF003802404435000878
:1022A00030B4056A046A24F0100404620F4CA042A2
:1022B00003D004F58064A04203D1046A24F04004F2
:1022C0000462846924F4407444EA022222F47042D5
:1022D0001B039BB2134325F0A002090101F0A001EA
:1022E00011438361016230BC704700BF00000140B0
:1022F00030B4056A046A24F4807404620E4CA0426F
:1023000003D004F58064A04203D1046A24F48064FD
:102310000462C46924F00304224322F0F0021B018A
:10232000DBB2134325F42062090201F4206111435A
:10233000C361016230BC70470000014070B4056A9F
:10234000066A26F480560662C46924F4407444EA9E
:10235000022424F470441B039BB2234325F420453C
:10236000090301F420412943C361016270BC704735
:102370007047000090F83D30DBB2012B32D10223D0
:1023800080F83D300368194A934220D0B3F1804F62
:102390001DD0A2F57C42934219D002F5806293428F
:1023A00015D002F58062934211D002F57842934233
:1023B0000DD002F57052934209D0A2F594329342A7
:1023C00005D01A6842F001021A60002070479A682E
:1023D00002F00702062A07D01A6842F001021A60CA
:1023E0000020704701207047002070470000014026
:1023F0000368196A41F21112114208D1196A40F2B8
:102400004442114203D11A6822F001021A600123EA
:1024100080F83D30002070470368324A904212D065
:10242000B0F1804F0FD0A2F57C4290420BD002F564
:102430008062904207D002F58062904203D002F59C
:102440007842904203D123F070034A681343254A2F
:1024500090422AD0B0F1804F27D0A2F57C42904222
:1024600023D002F5806290421FD002F58062904234
:102470001BD002F57842904217D002F5705290427C
:1024800013D002F5806290420FD002F58062904234
:102490000BD0A2F59832904207D002F580629042AC
:1024A00003D002F58062904203D123F44073CA68DE
:1024B000134323F080034A6913438A68C2620A689F
:1024C0008262084A904203D002F58062904201D1B4
:1024D0000A690263026842F004020260012242615A
:1024E000036070470000014040B310B5044690F807
:1024F0003D30F3B1022384F83D30214651F8040BFE
:10250000FFF78AFF012384F8463084F83E3084F8D0
:102510003F3084F8403084F8413084F8423084F809
:10252000433084F8443084F8453084F83D3000204E
:1025300010BD80F83C30FFF71BFFDBE70120704740
:1025400070B4056A046A24F0010404621E4CA042BF
:1025500003D004F58064A04203D1046A24F004048B
:1025600004628469184EB0421DD0B0F1804F1AD079
:10257000A6F57C46B04216D006F58066B04212D071
:1025800006F58066B0420ED006F57846B0420AD015
:1025900006F57056B04206D0A6F59436B04202D089
:1025A00044F0010202E024F00304224322F0F0028E
:1025B0001B01DBB2134325F00A0201F00A011143AB
:1025C0008361016270BC70470000014038B590F82B
:1025D0003C30012B5AD004460D46012380F83C3094
:1025E00052B1042A1AD0082A2BD00C2A3BD0012041
:1025F000002384F83C3038BDCB684A68096800681D
:10260000FFF79EFF2268936923F00C039361226811
:102610009369A9680B4393610020E9E7CB684A6896
:1026200009680068FFF73CFE2268936923F4406361
:10263000936122689369A96843EA012393610020AA
:10264000D6E7CB684A6809680068FFF751FE226840
:10265000D36923F00C03D3612268D369A9680B43C3
:10266000D3610020C4E7CB684A6809680068FFF7B7
:1026700065FE2268D36923F44063D3612268D3697D
:10268000A96843EA0123D3610020B1E70220B2E741
:1026900010B401F01F01012303FA01F4036A23EAD5
:1026A00004030362036A02FA01F10B4303625DF85B
:1026B000044B704710B504460B46002940D190F8F2
:1026C0003E00C0B2002B4BD194F84220D2B2012878
:1026D00040F08180012A7FD1002B51D1022284F861
:1026E0003E20002B5CD1022284F8422001221946B0
:1026F0002068FFF7CDFF2368394A934260D0B3F1D9
:10270000804F5DD0A2F57C42934259D002F58062A1
:10271000934255D002F58062934251D002F578423F
:1027200093424DD002F57052934249D0A2F59432B3
:10273000934245D01A6842F001021A6000204BE033
:10274000042905D0082907D090F84100C0B2B9E7A4
:1027500090F83F00C0B2B5E790F84000C0B2B1E7D2
:10276000042B05D0082B07D094F84520D2B2AEE751
:1027700094F84320D2B2AAE794F84420D2B2A6E754
:10278000042B05D0082B07D0022284F84120A8E7AB
:10279000022284F83F20A4E7022284F84020A0E728
:1027A000042B05D0082B07D0022284F845209DE792
:1027B000022284F8432099E7022284F8442095E716
:1027C0009A6802F00702062A07D01A6842F001024E
:1027D0001A60002000E0012010BD0020FCE700BFCF
:1027E00000000140026802F10C0353E8003F23F4AB
:1027F00090730C3242E800310029F3D1026802F1F3
:10280000140353E8003F23F00103143242E800317F
:102810000029F3D1036B012B05D0202380F842302F
:10282000002303637047026802F10C0353E8003F82
:1028300023F010030C3242E800310029F3D1ECE719
:1028400070B504460268136923F44053C1680B4312
:10285000136183680269134342691343C2691A43CF
:102860000168CB6823F4164323F00C031343CB60B9
:102870000268536923F4407381690B435361036811
:10288000344A934206D002F58062934202D0FFF7A9
:10289000E7FC01E0FFF7F4FCE369B3F5004F2AD051
:1028A0000026051846EB06012D1846EB0101CB006A
:1028B00043EA5573EA001546194663689A009B0F70
:1028C000281846EB0101FEF711F8234DA5FB003255
:1028D0005109642303FB11031B013233A5FB0323BE
:1028E0005B0903F0F00202EB011203F00F03216811
:1028F00013448B6070BD0026051846EB06012D18A9
:1029000046EB0101CB0043EA5573EA001546194630
:1029100062683346921846EB0303281846EB010120
:10292000FDF7E4FF0C4DA5FB00325109642303FBC6
:102930001103DB003233A5FB03235B095A0002F4C9
:10294000F87202EB011203F00703216813448B6055
:10295000D0E700BF001001401F85EB512DE9F04387
:1029600083B005460E4617469946DDF828802C6848
:10297000246836EA04030CBF01240024BC4228D199
:10298000B8F1FF3FF3D0FEF7E7FDA0EB09004045AB
:1029900023D8B8F1000F22D02B68DA6812F0040FA8
:1029A000E5D0802EE3D0402EE1D01A6812F0080F57
:1029B000DDD0002401941A6801925B680193019BA9
:1029C0002846FFF70FFF08236B6485F8404001207D
:1029D00000E0002003B0BDE8F0830320FAE7032005
:1029E000F8E760B310B5044690F8413013B32423E0
:1029F00084F841302268D36823F40053D360204622
:102A0000FFF71EFF2268136923F4904313612268C5
:102A1000536923F02A0353612268D36843F40053B7
:102A2000D36000206064202384F8413084F8423071
:102A3000606310BD80F84030FEF7F0F9D7E7012061
:102A400070472DE9F04182B01E4690F84130DBB26C
:102A5000202B56D104460D469046002955D00AB980
:102A600001204FE000234364212380F84130FEF72A
:102A700073FD0746A4F82480A4F82680A368B3F564
:102A8000805F02D04FF0000814E023692BB34FF0B1
:102A900000080FE0202384F84130032032E038F8AA
:102AA000023B2268C3F308035360E28C92B2013AFE
:102AB00092B2E284E38C9BB293B100963B46002233
:102AC00080212046FFF74AFF0028E3D1002DE6D001
:102AD00015F8012B23685A60E7E7A8460025E9E7C7
:102AE00000963B46002240212046FFF737FF18B9E9
:102AF000202384F8413005E0202384F8413003206E
:102B000000E0022002B0BDE8F0810120FAE70000F9
:102B1000034AD2F8883043F47003C2F88830704713
:102B200000ED00E0DFF834D0002103E00C4B5B58EF
:102B3000435004310B480C4B42189A42F6D30B4ACF
:102B400002E0002342F8043B094B9A42F9D3FFF715
:102B5000DFFF00F011F8FEF70FF9FEE7000002209A
:102B60009035000800000020700000207000002058
:102B700058070020FEE7000070B50D4D0D4C641B9A
:102B8000A4100026A64209D10B4D0C4C00F070FC9D
:102B9000641BA4100026A64205D170BD55F8043B65
:102BA00098470136EEE755F8043B98470136F2E7BF
:102BB0008835000888350008883500088C350008FD
:102BC00002440346934200D1704703F8011BF9E722
:102BD0000CB430B5174B0C1E1D689DB008DA8B2362
:102BE0002B604FF0FF301DB0BDE8304002B07047A1
:102BF0004FF40273ADF8143014BF04F1FF332346D1
:102C0000049307934FF6FF7302900690ADF81630C9
:102C1000209A21AB02A92846019300F069F8431CD1
:102C2000BCBF8B232B60002CDDD0029B00221A70CE
:102C3000D9E700BF0C0000202DE9F0478E689E42C6
:102C400082460C4690461F4638D88A8912F4906F07
:102C500032D025680969A5EB0109656905EB4505D1
:102C600005EBD57501334B446D109D4238BF1D46B1
:102C7000530531D5294600F047FB064650B90C23D1
:102C8000CAF80030A38943F04003A3814FF0FF301E
:102C9000BDE8F08721694A4600F0BEFAA38923F413
:102CA000906343F08003A381266165614E44A5EBE8
:102CB00009052660A5603E46BE4200D93E46324622
:102CC0002068414600F0B6FAA36822689B1B324494
:102CD000A36022600020DBE72A4600F06FFB064677
:102CE0000028E1D12169504600F0BEFAC7E7000094
:102CF0002DE9F04F98468B891B069DB007460D467F
:102D000014460ED50B6963B9402100F0FDFA286026
:102D1000286120B90C233B604FF0FF30D1E0402305
:102D20006B610023099320238DF82930CDF80C80A6
:102D30003023DFF8A8818DF82A304FF001092346AF
:102D40009A4613F8012B0AB1252AF9D1BAEB040BE4
:102D50000BD05B46224629463846FFF76DFF01300F
:102D600000F0AA80099A5A4409929AF80030002B80
:102D700000F0A28000234FF0FF32CDE905230AF1D5
:102D8000010A049307938DF853301A935446052291
:102D900014F8011B5148FDF723FA049AD8B9D0065C
:102DA00044BF20238DF85330110744BF2B238DF8E7
:102DB00053309AF800302A2B15D0079A5446002039
:102DC0004FF00A0C214611F8013B303B092B4ED93C
:102DD000B0B1079214E0A0EB080309FA03F3134320
:102DE0000493A246D2E7039B191D1B680391002B95
:102DF000BBBF5B4242F0020207930793B8BF049245
:102E000023782E2B0CD163782A2B35D1039B1A1DE6
:102E10001B680392002BB8BF4FF0FF3302340593B9
:102E2000DFF8C8A0217803225046FDF7D9F940B158
:102E30004023A0EB0A0003FA00F0049B0343013493
:102E4000049314F8011B26488DF828100622FDF77C
:102E5000C7F9002838D0234B1BBB039B073323F053
:102E6000070308330393099B3344099367E70CFB7B
:102E700002320C460120A5E70023013405931946D0
:102E80004FF00A0C204610F8012B303A092A03D9DA
:102E9000002BC5D00591C3E70CFB0121044601239B
:102EA000F0E703AB00932A460F4B04A93846AFF373
:102EB0000080421C0646D6D1AB895B063FF52CAF9D
:102EC00009981DB0BDE8F08F03AB00932A46064B6E
:102ED00004A9384600F07AF8EBE700BF4C3500084B
:102EE0005635000800000000392C00085235000853
:102EF0002DE9F047164699468A680B69DDF820806F
:102F00009342B8BF1346336091F8432007460C46FE
:102F10000AB1013333602368990642BF3368023334
:102F20003360256815F0060506D104F1190AE36837
:102F300032689B1AAB4226DC94F84320131E2268A9
:102F400018BF012392062BD404F1430249463846A8
:102F5000C04701301ED02368E568326803F00603DD
:102F6000042B08BFAD1AA36822690CBF25EAE575DA
:102F700000259342C4BF9B1AED1800261A34B542AF
:102F80001AD1002008E00123524649463846C0477E
:102F9000013003D14FF0FF30BDE8F0870135C6E7BF
:102FA000E1185A1C302081F84300224494F845105F
:102FB00082F843100233C7E70123224649463846C8
:102FC000C0470130E6D00136D9E700002DE9FF47C0
:102FD0000C469146277E0C99782F80469A4604F13C
:102FE000430207D8622F0AD8002F00F0D880582F4C
:102FF00000F0A38004F1420684F842703AE0A7F1A1
:103000006303152BF6D801A050F823F065300008B3
:1030100079300008F52F0008F52F0008F52F00087B
:10302000F52F000879300008F52F0008F52F00086B
:10303000F52F0008F52F000885310008A930000899
:1030400067310008F52F0008F52F0008A7310008A8
:10305000F52F0008A9300008F52F0008F52F00080B
:103060006F3100080B681A1D1B680A6004F14206E4
:1030700084F842300123A3E0256808682E0600F199
:1030800004030AD505680B60002D03DA2D236D4279
:1030900084F843305E480A2319E015F0400F0568B4
:1030A0000B6018BF2DB2EFE70B682568181D08608C
:1030B000280601D51D6802E06906FBD51D88544825
:1030C0006F2F0CBF08230A23002184F84310666881
:1030D000A660002EA2BF216821F0040121600DB975
:1030E000002E4DD01646B5FBF3F103FB1157C75D1B
:1030F00006F8017D2F46BB420D46F4D9082B0BD1B3
:103100002368DF0708D5236961689942DEBF302351
:1031100006F8013C06F1FF36921B2261CDF800A0B3
:103120004B4603AA21464046FFF7E2FE01304CD150
:103130004FF0FF3004B0BDE8F087354884F84570A3
:1031400023680E681F0656F8045B0E6014D5D90775
:1031500044BF43F0200323601DB9236823F02003FC
:1031600023601023B0E7236843F020032360782313
:10317000284884F84530E3E75E0648BFADB2E6E78D
:103180001646BBE70B68266860691D1D0D60350695
:103190001B6801D5186002E07106FBD5188000237A
:1031A00023611646BAE70B681A1D0A601E6862683A
:1031B00000213046FDF714F808B1801B6060636899
:1031C0002361002384F84330A8E723693246494647
:1031D0004046D0470130ABD023689B0713D4E0684A
:1031E000039B9842B8BF1846A4E7012332464946DC
:1031F0004046D04701309BD00135E36803995B1A04
:10320000AB42F2DCEBE7002504F11906F5E700BF5D
:103210005D3500086E3500080A44914200F1FF3325
:1032200000D1704710B511F8014B03F8014F9142DE
:10323000F9D110BD884210B501EB020402D98442D5
:10324000234607D8431EA14208D011F8012B03F8EA
:10325000012FF8E7024401468A4200D110BD13F85D
:10326000014D02F8014DF7E737B5002948D051F874
:10327000043C0190002BA1F10404B8BFE41800F055
:10328000D3F8204A01981368154633B96360146077
:1032900003B0BDE8304000F0CDB8A3420BD921689F
:1032A0006218934204BF1A685B68636004BF5218D7
:1032B00022602C60ECE71A465B680BB1A342FAD996
:1032C00011685518A5420BD1246821445418A34213
:1032D0001160DDD11C685B68536021441160D7E741
:1032E00002D90C230360D3E7256861198B4204BF20
:1032F00019685B68636004BF491921605460C7E7BF
:1033000003B030BDA0050020F8B5CD1C25F00305A5
:1033100008350C2D38BF0C25002D064601DBA942CF
:1033200003D90C2333600020F8BD00F07DF821495B
:103330000A6814469CB9204F3B6823B921463046A1
:1033400000F062F838602946304600F05DF8431C12
:1033500023D10C233360304600F06CF8E3E7236898
:103360005B1B17D40B2B03D923601C44256004E09E
:103370006368A2420CBF0B605360304600F05AF8FD
:1033800004F10B00231D20F00700C21ACCD01B1A39
:10339000A350C9E722466468CCE7C41C24F00304A8
:1033A000A042E3D0211A304600F02EF80130DDD1E2
:1033B000CFE700BFA0050020A4050020F8B5074610
:1033C00014460E4621B9BDE8F8401146FFF79CBFF0
:1033D00022B9FFF749FF25462846F8BD00F030F82E
:1033E000A0420FD221463846FFF78EFF054600283F
:1033F000F2D031462246FFF70FFF31463846FFF73D
:1034000033FFE9E73546E7E738B5064D00230446C4
:1034100008462B6000F01EF8431C02D12B6803B154
:10342000236038BD48070020014800F011B800BFF4
:1034300050070020014800F00CB800BF50070020E2
:1034400051F8043C181F002BBCBF0B58C018704724
:1034500070477047044A05491368002B08BF0B46A4
:103460001844106018467047A8050020580700202F
:10347000F8B500BFF8BC08BC9E467047F8B500BF61
:08348000F8BC08BC9E46704731
:10348800506F733A20252E3666207261642C2045D1
:1034980072726F72733A20256C752C204352432048
:1034A8004F4B3A20256C752C2043524320457272AD
:1034B8003A20256C750D0A0053544D33324634308A
:1034C80037205961736B61776120456E636F64655E
:1034D8007220526561646572205374617274656408
:1034E8000D0A000030313031303130313031303177
:1034F80030313031303130203031313131313130CB
:1035080020313131313130203131313131302031D8
:1035180031313131302031203031313131313130B8
:10352800000000000006101600061016000000003B
:10353800000000000102030406070809000000005B
:1035480001020304232D302B2000686C4C006566B3
:1035580067454647003031323334353637383941DC
:1035680042434445460030313233343536373839F2
:083578006162636465660000F6
:083580009CD3FF7F0100000055
:04358800B501000881
:04358C0091010008A1
:1035900001000000100000000024F40010000020D2
:1035A000000000000000000000000000000000001B
:1035B000000000000000000000000000000000000B
:1035C00000000000000000000000000000000000FB
:1035D00000000000000000000000000000000000EB
:1035E00000000000000000000000000000000000DB
:1035F00000000000000000000000000000000000CB
:0400000508002B259F
:00000001FF
