:020000040800F2
:1000000000000220DD1A00082D1B00082D1B00082F
:100010002D1B00082D1B00082D1B000800000000F0
:100020000000000000000000000000002D1B000880
:100030002D1B0008000000002D1B00082D1B0008D0
:100040002D1B00082D1B00082D1B00082D1B000870
:100050002D1B00082D1B00082D1B00082D1B000860
:100060002D1B00082D1B00082D1B00082D1B000850
:100070002D1B00082D1B00082D1B00082D1B000840
:100080002D1B00082D1B00082D1B00082D1B000830
:100090002D1B00082D1B00082D1B00082D1B000820
:1000A0002D1B00082D1B00082D1B00082D1B000810
:1000B0002D1B00082D1B00082D1B00082D1B000800
:1000C0002D1B00082D1B00082D1B00082D1B0008F0
:1000D0002D1B0008AD0600082D1B00082D1B000875
:1000E0002D1B00082D1B00082D1B00082D1B0008D0
:1000F0002D1B00082D1B00082D1B00082D1B0008C0
:100100002D1B00082D1B00082D1B00082D1B0008AF
:100110002D1B00082D1B00082D1B00082D1B00089F
:100120002D1B00082D1B00082D1B00082D1B00088F
:100130002D1B00082D1B00082D1B00082D1B00087F
:100140002D1B00082D1B00082D1B00082D1B00086F
:100150002D1B00082D1B00082D1B00082D1B00085F
:100160002D1B00082D1B00082D1B00082D1B00084F
:100170002D1B00082D1B00082D1B00082D1B00083F
:080180002D1B00082D1B0008D7
:1001900010B5054C237833B9044B13B10448AFF3C1
:1001A00000800123237010BD7000002000000000BB
:1001B0002824000808B5034B1BB103490348AFF3DB
:1001C000008008BD00000000740000202824000802
:1001D000034613F8012B002AFBD1181A0138704787
:1001E00001F0FF01102A2BDB10F0070F08D010F8E8
:1001F000013B013A8B422DD010F0070F42B3F6D1EC
:10020000F0B441EA012141EA014122F007047FF004
:1002100000070023F0E80256083C85EA010586EA5B
:10022000010685FA47F5A3FA87F586FA47F6A5FA97
:1002300087F68EB9EED1F0BC01F0FF0102F00702A3
:1002400032B110F8013B013A83EA010313B1F8D14E
:100250000020704701387047002D06BF354603382F
:10026000073815F0010F07D1013015F4807F02BF68
:10027000013015F4C03F0130F0BC0138704700BFB9
:1002800053B94AB9002908BF00281CBF4FF0FF31FD
:100290004FF0FF3000F06EB9ADF1080C6DE904CEFF
:1002A00000F006F8DDF804E0DDE9022304B0704751
:1002B0002DE9F047089D04468C46002B40F08380D2
:1002C0008A42174647D9B2FA82F242B1C2F12000FF
:1002D00024FA00F09140974040EA010C94404FEA24
:1002E0001748230CBCFBF8F61FFA87FE08FB16C163
:1002F00043EA014306FB0EF1994209D9FB1806F1C6
:10030000FF3080F01981994240F21681023E3B4451
:100310005B1AA4B2B3FBF8F008FB103344EA0344C1
:1003200000FB0EFEA64509D93C1900F1FF3380F011
:100330000581A64540F2028102383C4440EA06406D
:10034000A4EB0E0400261DB1D4400023C5E90043F0
:100350003146BDE8F08702B9FFDEB2FA82F2002A28
:1003600050D1CB1B4FEA174E1FFA87F80126B3FB7B
:10037000FEFC210C0EFB1C3341EA034108FB0CF38D
:100380008B4207D979180CF1FF3002D28B4200F270
:10039000E9808446C91AA3B2B1FBFEF00EFB10112E
:1003A00043EA014408FB00F8A04507D93C1900F1D5
:1003B000FF3302D2A04500F2D9801846A4EB08040E
:1003C00040EA0C40BFE78B4209D9002D00F0B18014
:1003D0000026C5E9000130463146BDE8F087B3FA92
:1003E00083F6002E4AD18B4202D3824200F2B880BB
:1003F000841A61EB030101208C46002DA8D0C5E9C9
:10040000004CA5E7C2F1200320FA03F6974001FA59
:1004100002F04FEA174ED9403043030CB1FBFEF611
:100420001FFA87F80EFB161143EA014306FB08F199
:10043000994204FA02F409D9FB1806F1FF3C80F056
:100440008D80994240F28A80023E3B445B1A81B221
:10045000B3FBFEF00EFB103341EA034100FB08F34F
:100460008B4207D9791800F1FF3C73D28B4271D9C6
:1004700002383944CB1A40EA064678E7C6F1200C28
:1004800003FA06F422FA0CF31C4320FA0CF701FAE3
:1004900006F34FEA144E21FA0CF11F433B0CB1FB5B
:1004A000FEF91FFA84F80EFB191143EA014109FB1A
:1004B00008FA8A4502FA06F200FA06F308D961182A
:1004C00009F1FF3048D28A4546D9A9F102092144F1
:1004D000A1EB0A01BFB2B1FBFEF00EFB101147EA1F
:1004E000014700FB08F8B84507D9E71900F1FF31CB
:1004F0002ED2B8452CD90238274440EA0940A7EB50
:100500000807A0FB02894F45C64649461AD317D0B3
:100510005DB1B3EB0E0267EB010707FA0CFCF2408A
:100520004CEA0202F740C5E9002700263146BDE843
:10053000F0872E4628460BE70646E9E61846FDE614
:100540004345E5D2B8EB020E69EB04010138DFE761
:100550000846D2E760468DE78146B9E7664675E70B
:1005600030464AE7ACF1020C394413E702383C4408
:1005700024E700BF704700BF10B50A4C0A4B236048
:1005800060600023A360E3602361A3610C236361C7
:10059000204601F0D9F801220449204601F073F900
:1005A00010BD00BF9C00002000100140DC000020B6
:1005B00002681E4B9A4200D0704710B588B00021E7
:1005C000019103F594331A6B42F001021A631A6B1E
:1005D00002F001020192019A02915A6C42F010025B
:1005E0005A645B6C03F010030293029B4FF4007398
:1005F0000393022304930122059206930723079392
:100600000B4C03A9204600F093FA4FF48063039348
:1006100003A9204600F08CFA252000F041FA0322BD
:100620001146252000F008FA08B010BD0010014066
:10063000000002400268194B9A4200D07047184AE5
:100640001388B2F90020002AF8DB13F4804F0ED093
:10065000144A12780A2A03D0114B00221A807047DC
:100660006FEA43436FEA53430D4A138070470D4AC4
:1006700012780D2A0DD0C3F30D010B4842540133FB
:100680009BB2074A1380C72BD8D9134600221A8081
:10069000D4E743F48043024A1380704700100140BE
:1006A0008C000020DC000020E000002008B5084895
:1006B00001F076F9064801F00BFA2028FAD1012260
:1006C0000449034801F0DFF80028F8D108BD00BF55
:1006D0009C000020DC00002008B5042000F004FA93
:1006E00008BD00002DE9F04188B000240094304B93
:1006F0001A6B42F001021A631A6B02F001020092B7
:10070000009A01941A6B42F040021A631A6B02F0CD
:1007100040020192019A02941A6B42F020021A637D
:100720001B6B03F020030293029B4FF400730393AF
:100730004FF00208CDF81080059403250695072791
:1007400007971C4E03A9304600F0F2F94FF480637E
:100750000393CDF8108005940695079703A93046BA
:1007600000F0E6F94FF4807603960127049705948C
:100770000695114D03A9284600F0DAF922463146C4
:10078000284600F0BBFA4FF4C06603960497059420
:100790000694A5F5806503A9284600F0C9F922460C
:1007A0003146284600F0AAFA08B0BDE8F08100BF43
:1007B00000380240000002400018024072B6FEE716
:1007C00000B595B03022002108A801F0D5F900232A
:1007D000039304930593069307930193214A116CA5
:1007E00041F080511164126C02F080520192019A22
:1007F00002931D4B1A6842F480421A601B6803F48E
:1008000080430293029B012308934FF480330993A2
:1008100002230E934FF480020F92082210924FF49D
:10082000A872119212930723139308A800F076FA86
:1008300098B90F23039302230493002305934FF4E5
:10084000A05306934FF480530793052103A800F0AB
:1008500097FC20B915B05DF804FBFFF7AFFFFFF779
:10086000ADFF00BF003802400070004030B5C5B099
:1008700000F0A0F8FFF7A4FFFFF734FFA820FFF770
:100880002BFF4FF4E130FFF777FE39AC1F4D0FCD52
:100890000FC40FCD0FC495E8070003C424F8022B42
:1008A000120C227039A8FFF793FC4FF47A7382B2CE
:1008B00039A9174800F077FF154B1B681B6813F028
:1008C000400FF9D00DE0134C4FF40071204600F0BA
:1008D0001BFA4FF48061204600F016FA642000F005
:1008E00085F8002304930393029300220023CDE9AB
:1008F0000023094AC82107A801F046F9044B1B68E8
:100900001B6813F0400FF9D0DDE700BF7824000822
:100910009C00002000140240402400080F49D1F838
:10092000883043F47003C1F888300D4B1A6842F0E8
:1009300001021A60002098601A6822F0847222F482
:1009400080321A60074A5A601A6822F480221A60BC
:10095000D8604FF000638B60704700BF00ED00E08F
:10096000003802401030002410B504460E4B1878B1
:100970004FF47A73B3FBF0F30C4A1068B0FBF3F05A
:1009800000F09CF868B90F2C01D901200AE0002280
:1009900021464FF0FF3000F04FF8054B1C6000205F
:1009A00000E0012010BD00BF040000200000002076
:1009B0000800002008B5094B1A6842F400721A605A
:1009C0001A6842F480621A60052000F023F80F20B4
:1009D000FFF7CAFF00F0A1F9002008BD003C02406B
:1009E000014B1868704700BF1002002038B504465C
:1009F000FFF7F6FF0546B4F1FF3F02D0044B1B782A
:100A00001C44FFF7EDFF401BA042FAD338BD00BFE6
:100A100004000020074AD36823F4E0631B041B0C86
:100A2000000200F4E060034343F0BF6343F400338B
:100A3000D360704700ED00E030B4174BDB68C3F3C0
:100A40000223C3F10704042C28BF04241D1D062D16
:100A500018D9033B4FF0FF3505FA04F421EA0401ED
:100A6000994005FA03F322EA0303194300280BDB3C
:100A70000901C9B200F1604000F5614080F800133F
:100A800030BC70470023E5E700F00F000901C9B250
:100A9000024B1954F4E700BF00ED00E014ED00E054
:100AA000002807DB00F01F02400901239340024A9F
:100AB00042F82030704700BF00E100E00138B0F19B
:100AC000807F0AD2064B5860064AF02182F8231034
:100AD0000020986007221A6070470120704700BF0D
:100AE00010E000E000ED00E0042805D0054A13689E
:100AF00023F0040313607047024A136843F00403B1
:100B00001360704710E000E090F83530DBB2022B44
:100B100003D08023436501207047052380F83530DA
:100B20000268136823F0010313600020704700007F
:100B300000230F2B00F2D980F0B482B039E00722F5
:100B400000E00022B2403A430234684E46F82420C6
:100B5000674A1468EA4324EA05064F6817F4803FA1
:100B600001D045EA0406624C2660646802EA040685
:100B70004F6817F4003F01D045EA04065C4C6660FC
:100B8000A46802EA04064F6817F4801F01D045EA02
:100B90000406574CA660E46822404E6816F4001F15
:100BA00001D045EA0402524CE26001330F2B00F2FF
:100BB000998001229A400C6804EA020532EA040492
:100BC000F3D14C68022C01D0122C10D1DE0808366B
:100BD00050F826C003F00704A7000F24BC402CEAFD
:100BE000040C0C69BC4044EA0C0440F82640D0F8E0
:100BF00000C05E000324B440E7432CEA040C4C68B8
:100C000004F00304B44044EA0C0404604C6804F1AA
:100C1000FF3CBCF1010F03D9112C01D0122C10D1D3
:100C2000846807EA040CCC68B44044EA0C0484608D
:100C3000446824EA02024C68C4F300149C40144344
:100C40004460C26817408A68B2403A43C2604A684A
:100C500012F0805FA9D000220192264A546C44F41D
:100C600080445464526C02F480420192019A9C08C0
:100C7000A61C1E4A52F8267003F0030296000F22AB
:100C8000B24027EA02071C4A90423FF45AAF02F5ED
:100C9000806290421AD002F58062904218D002F52C
:100CA0008062904216D002F58062904214D002F524
:100CB0008062904212D002F58062904210D002F51C
:100CC000806290423FF43BAF08223BE7012239E7C4
:100CD000022237E7032235E7042233E7052231E712
:100CE00006222FE702B0F0BC704770470038014081
:100CF000003C014000380240000002400AB181611E
:100D00007047090481617047436931EA030301D0E8
:100D1000816170470904816170477047002800F0C5
:100D2000B98170B582B00446036813F0010F3BD05F
:100D3000A64B9B6803F00C03042B2CD0A34B9B68A1
:100D400003F00C03082B21D06368B3F5803F4FD02C
:100D5000B3F5A02F52D09D4B1A6822F480321A604E
:100D60001A6822F480221A606368002B50D0FFF7C3
:100D700037FE0546954B1B6813F4003F14D1FFF76F
:100D80002FFE401B6428F5D903208AE18F4B5B6856
:100D900013F4800FD8D08D4B1B6813F4003F03D0A1
:100DA0006368002B00F07881236813F0020F54D0A1
:100DB000864B9B6813F00C0F3ED0844B9B6803F06E
:100DC0000C03082B33D0E368002B67D0804B012243
:100DD0001A60FFF705FE05467C4B1B6813F0020FF7
:100DE00053D1FFF7FDFD401B0228F5D9032058E140
:100DF000764A136843F480331360B5E7734B1A687F
:100E000042F480221A601A6842F480321A60ABE71A
:100E1000FFF7E6FD05466D4B1B6813F4003FC3D09A
:100E2000FFF7DEFD401B6428F5D9032039E1674B4D
:100E30005B6813F4800FC6D1644B1B6813F0020F7C
:100E400003D0E368012B40F02981604A136823F046
:100E5000F803216943EAC1031360236813F0080F04
:100E600040D0636963B35B4B01221A60FFF7B8FDA2
:100E70000546564B5B6F13F0020F33D1FFF7B0FD01
:100E8000401B0228F5D903200BE1504A136823F0D8
:100E9000F803216943EAC1031360DEE74C4B0022EB
:100EA0001A60FFF79DFD0546484B1B6813F0020FC3
:100EB000D3D0FFF795FD401B0228F5D90320F0E0C1
:100EC000444B00221A60FFF78BFD05463F4B5B6FDA
:100ED00013F0020F06D0FFF783FD401B0228F5D95F
:100EE0000320DEE0236813F0040F78D0374B1B6C2F
:100EF00013F0805F0DD100230193344B1A6C42F044
:100F000080521A641B6C03F080530193019B0125EE
:100F100000E00025304B1B6813F4807F21D0A368CC
:100F2000012B32D0052B36D0284B1A6F22F001024C
:100F30001A671A6F22F004021A67A368002B34D0D4
:100F4000FFF74EFD0646214B1B6F13F0020F45D1F4
:100F5000FFF746FD801B41F288339842F3D9032006
:100F60009FE01D4A136843F480731360FFF738FD58
:100F70000646194B1B6813F4807FD0D1FFF730FD74
:100F8000801B0228F5D903208BE0104A136F43F031
:100F900001031367D1E70D4B1A6F42F004021A6781
:100FA0001A6F42F001021A67C7E7FFF719FD0646FC
:100FB000064B1B6F13F0020F10D0FFF711FD801BC3
:100FC00041F288339842F3D903206AE000380240A6
:100FD00000004742800E474200700040E5B9A36917
:100FE000002B5DD0314A926802F00C02082A5AD0D8
:100FF000022B17D02E4B00221A60FFF7F1FC04469B
:101000002A4B1B6813F0007F42D0FFF7E9FC001B5E
:101010000228F5D9032044E0244A136C23F08053BE
:101020001364DCE7224B00221A60FFF7D9FC054667
:101030001E4B1B6813F0007F06D0FFF7D1FC401B4E
:101040000228F5D903202CE0E369226A1343626A7F
:1010500043EA8213A26A5208013A43EA0243E26A6F
:1010600043EA0263114A5360114B01221A60FFF7F1
:10107000B7FC04460D4B1B6813F0007F06D1FFF749
:10108000AFFC001B0228F5D903200AE0002008E08D
:10109000002006E001207047012002E0012000E06E
:1010A000002002B070BD0120FBE700BF0038024005
:1010B00060004742F8B52F4B9B6803F00C03042BEC
:1010C00053D0082B53D12B4B5A6802F03F025B6878
:1010D00013F4800F28D0274B5B68C3F388135801A3
:1010E0000021C01A61F100018E0146EA9066870175
:1010F0003C1A66EB0105E90041EA5471E000C018B2
:1011000041F100014B0243EAD05344022046194604
:101110000023FFF7B5F8174B5B68C3F301430133B6
:101120005B00B0FBF3F023E0124B5B68C3F3881362
:101130005C010025E41A65F10005AE0146EA9466FB
:10114000A701381B66EB0501CC0044EA5074C500CA
:10115000E81844F100018B0243EA905384022046D0
:1011600019460023FFF78CF8D5E7034800E0034851
:10117000F8BD00BF0038024000127A000024F400DD
:10118000002800F09A8070B50D4604464F4B1B684E
:1011900003F00F038B4208D2CBB24C4A1370136892
:1011A00003F00F038B4240F08A80236813F0020F94
:1011B00017D013F0040F04D0454A936843F4E0536A
:1011C0009360236813F0080F04D0414A936843F4F6
:1011D000604393603E4A936823F0F003A1680B4399
:1011E0009360236813F0010F32D06368012B21D084
:1011F0009A1E012A25D9364A126812F0020F60D0D1
:1012000033498A6822F0030213438B60FFF7E8FB3F
:1012100006462F4B9B6803F00C036268B3EB820F0A
:1012200016D0FFF7DDFB801B41F288339842F0D9DE
:10123000032041E0264A126812F4003FE0D1012069
:101240003AE0234A126812F0007FD9D1012033E03E
:101250001E4B1B6803F00F03AB4207D9EAB21B4BCE
:101260001A701B6803F00F03AB422CD1236813F0F4
:10127000040F06D0164A936823F4E053E1680B4349
:101280009360236813F0080F07D0114A936823F482
:101290006043216943EAC1039360FFF70BFF0C4BE6
:1012A0009B68C3F303130B4AD35CD8400A4B186006
:1012B0000F20FFF759FB002070BD0120704701206F
:1012C000FAE70120F8E70120F6E700BF003C024002
:1012D00000380240A424000800000020014B1868D8
:1012E000704700BF0000002008B5FFF7F7FF044B70
:1012F0009B68C3F38223034AD35CD84008BD00BF78
:1013000000380240B424000808B5FFF7E7FF044B9B
:101310009B68C3F34233034AD35CD84008BD00BF87
:1013200000380240B42400080268D36823F49073A4
:10133000D3600268536923F001035361202380F8CE
:101340003A30704790F83930DBB2212B01D00220BF
:1013500070478368B3F5805F17D0036A5A1C026236
:101360001A7803685A60C38C9BB2013B9BB2C3845A
:101370004BB90268D36823F08003D3600268D36856
:1013800043F04003D36000207047036A1B88026863
:10139000C3F30803536003691BB9036A0233036292
:1013A000E1E7036A01330362DDE700002DE9F8435A
:1013B00004460268136923F44053C1680B43136168
:1013C00083680269134342691343C2691A4301687F
:1013D000CB6823F4164323F00C031343CB6002685D
:1013E000536923F4407381690B435361C369B3F5B7
:1013F000004F60D00368B84A934200F0148102F5B0
:101400008062934200F00F81FFF76EFF00EB8000D7
:1014100000EB80006568AD00B0FBF5F5AF4EA6FBB4
:1014200005356D092F01FFF75FFF00EB800505EB28
:10143000850563689B00B5FBF3F9FFF755FF00EBEB
:10144000800000EB80006568AD00B0FBF5F5A6FB01
:1014500005356D094FF0640808FB15952D013235EF
:10146000A6FB05356D0905F0F0053D44FFF73CFF8F
:1014700000EB800000EB80006768BF00B0FBF7F76F
:10148000FFF732FF00EB800000EB800063689B00F9
:10149000B0FBF3F0A6FB0030400908FB10784FEAE0
:1014A000081808F13208A6FB0836C6F3431623686D
:1014B0002E449E600DE10368874A93425BD002F59B
:1014C0008062934257D0FFF70FFF00EB800000EBE4
:1014D000800065686D00B0FBF5F5804EA6FB053514
:1014E0006D092F01FFF700FF00EB800000EB80008B
:1014F00065686D00B0FBF5F9FFF7F6FE00EB8000C4
:1015000000EB800065686D00B0FBF5F5A6FB0535C6
:101510006D094FF0640808FB1595ED003235A6FB08
:1015200005356D096D0005F4F8753D44FFF7DCFEE7
:1015300000EB800000EB800067687F00B0FBF7F7EE
:10154000FFF7D2FE00EB800000EB800063685B00D9
:10155000B0FBF3F3A6FB03235B0908FB13784FEA08
:10156000C80808F13208A6FB0836C6F342162368FD
:101570002E449E60ADE0FFF7C7FE00EB800000EB5D
:10158000800065686D00B0FBF5F5544EA6FB05358F
:101590006D092F01FFF7B8FE00EB800000EB800023
:1015A00065686D00B0FBF5F9FFF7AEFE00EB80005B
:1015B00000EB800065686D00B0FBF5F5A6FB053516
:1015C0006D094FF0640808FB1595ED003235A6FB58
:1015D00005356D096D0005F4F8753D44FFF794FE7F
:1015E00000EB800000EB800067687F00B0FBF7F73E
:1015F000FFF78AFE00EB800000EB800063685B0071
:10160000B0FBF3F3A6FB03235B0908FB13784FEA57
:10161000C80808F13208A6FB0836C6F3421623684C
:101620002E449E6055E0FFF76FFE00EB800000EB5C
:1016300080006568AD00B0FBF5F5284EA6FB0535CA
:101640006D092F01FFF760FE00EB800505EB8505B6
:1016500063689B00B5FBF3F9FFF756FE00EB8000D3
:1016600000EB80006568AD00B0FBF5F5A6FB053525
:101670006D094FF0640808FB15952D013235A6FB66
:1016800005356D0905F0F0053D44FFF73DFE00EB23
:10169000800000EB80006768BF00B0FBF7F7FFF742
:1016A00033FE00EB800000EB800063689B00B0FB22
:1016B000F3F0A6FB0030400908FB10784FEA081849
:1016C00008F13208A6FB0836C6F3431623682E44F9
:1016D0009E60BDE8F88300BF001001401F85EB51FC
:1016E0002DE9F84305460F4616469946DDF8208059
:1016F0002C68246837EA04030CBF01240024B44298
:101700001FD1B8F1FF3FF3D0B8F1000F05D0FFF7BC
:1017100067F9A0EB09004045EAD92A68D36823F4A9
:10172000D073D3602A68536923F0010353612023E7
:1017300085F8393085F83A30002385F838300320B1
:1017400000E00020BDE8F88358B310B5044690F8D7
:1017500039300BB3242384F839302268D36823F45A
:101760000053D3602046FFF721FE2268136923F45B
:10177000904313612268536923F02A03536122685E
:10178000D36843F40053D3600020E063202384F83F
:10179000393084F83A3010BD80F83830FEF708FF51
:1017A000D8E7012070472DE9F04182B01E4690F83D
:1017B0003930DBB2202B58D104460D469046002923
:1017C00057D0002A57D090F83830012B55D001233C
:1017D00080F838300023C363212380F83930FFF7C5
:1017E000FFF80746A4F82480A4F8268017E00096A6
:1017F0003B46002280212046FFF772FF00283ED1A1
:101800002B882268C3F30803536023690BB90235A0
:1018100005E0013503E015F8012B23685A60E38CDD
:101820009BB29BB1E28C92B2013A92B2E284A3687D
:10183000B3F5805FDBD000963B4600228021204636
:10184000FFF74EFF0028E6D003200FE000963B464E
:10185000002240212046FFF743FF90B9202384F85F
:101860003930002384F8383000E0022002B0BDE8AF
:10187000F0810120FAE70120F8E70220F6E70320D3
:10188000F4E70320F2E790F83A30DBB2202B20D1C6
:1018900009B312B390F83830012B20D081628285D1
:1018A000C2850023C363222280F83A2080F83830B2
:1018B0000168CA6842F48072CA6001684A6942F0ED
:1018C00001024A610168CA6842F02002CA601846F3
:1018D00070470220704701207047012070470220A6
:1018E0007047704708B50168CA6822F04002CA60B4
:1018F000202280F83920FFF7F4FF002008BD08B54A
:1019000090F83A30DBB2222B46D18368B3F5805F82
:101910000FD003690BBB03685A68836A591C816244
:101920001A70C38D9BB2013B9BB2C385F3B10020FB
:1019300008BD826A036943B903685B68C3F308039F
:101940001380836A02338362EBE703685B68DBB270
:101950001380836A01338362E3E703685B68826A0A
:10196000511C816203F07F031370DAE70268D368C9
:1019700023F02003D3600268D36823F48073D3601C
:101980000268536923F001035361202380F83A3041
:10199000FEF750FE0020CBE70220C9E770470000A9
:1019A00010B5044602681368D168526913F00F003D
:1019B00005D113F0200F02D011F0200F13D128B160
:1019C00012F0010213D111F4907F10D113F0800FA7
:1019D00002D011F0800F69D113F0400F02D011F046
:1019E000400F67D110BD2046FFF789FFFAE713F0DB
:1019F000010F06D011F4807F03D0E06B40F00100AE
:101A0000E06313F0040F04D01AB1E06B40F0020061
:101A1000E06313F0020F04D01AB1E06B40F0040051
:101A2000E06313F0080F04D01AB1E26B42F0080231
:101A3000E263E26B002AD5D013F0200F02D011F040
:101A4000200F21D123685B6903F04003E26B12F0A1
:101A5000080F00D123B32046FFF766FC23685A69BC
:101A600012F0400F18D05A6922F040025A61636B9D
:101A700073B1124A1A65606BFFF746F80028B1D0BF
:101A8000606B036D9847ADE72046FFF738FFD9E755
:101A90002046FFF783FFA5E72046FFF77FFFA1E77A
:101AA0002046FFF77BFF0023E3639BE72046FFF719
:101AB00049FC97E72046FFF715FF93E7C11A000896
:101AC00008B5806B0023C385C384FFF767FF08BD9B
:101AD00090F8393090F83A0018437047DFF834D066
:101AE000002103E00C4B5B58435004310B480C4B76
:101AF00042189A42F6D30B4A02E0002342F8043B14
:101B0000094B9A42F9D3FEF709FF00F011F8FEF7EE
:101B1000ADFEFEE7000002200025000800000020C6
:101B2000700000207000002024020020FEE700006A
:101B300070B50D4D0D4C641BA4100026A64209D1B2
:101B40000B4D0C4C00F070FC641BA4100026A64248
:101B500005D170BD55F8043B98470136EEE755F8BE
:101B6000043B98470136F2E7F8240008F8240008FF
:101B7000F8240008FC24000802440346934200D1E4
:101B8000704703F8011BF9E70CB430B5174B0C1E76
:101B90001D689DB008DA8B232B604FF0FF301DB01D
:101BA000BDE8304002B070474FF40273ADF8143016
:101BB00014BF04F1FF332346049307934FF6FF73DA
:101BC00002900690ADF81630209A21AB02A9284663
:101BD000019300F069F8431CBCBF8B232B60002CE1
:101BE000DDD0029B00221A70D9E700BF0C00002054
:101BF0002DE9F0478E689E4282460C4690461F466D
:101C000038D88A8912F4906F32D025680969A5EB1B
:101C10000109656905EB450505EBD57501334B44B5
:101C20006D109D4238BF1D46530531D5294600F041
:101C300047FB064650B90C23CAF80030A38943F08D
:101C40004003A3814FF0FF30BDE8F08721694A4689
:101C500000F0BEFAA38923F4906343F08003A381CC
:101C6000266165614E44A5EB09052660A5603E46E8
:101C7000BE4200D93E4632462068414600F0B6FAE0
:101C8000A36822689B1B3244A36022600020DBE72C
:101C90002A4600F06FFB06460028E1D12169504634
:101CA00000F0BEFAC7E700002DE9F04F98468B8997
:101CB0001B069DB007460D4614460ED50B6963B949
:101CC000402100F0FDFA2860286120B90C233B6018
:101CD0004FF0FF30D1E040236B61002309932023B4
:101CE0008DF82930CDF80C803023DFF8A8818DF8ED
:101CF0002A304FF0010923469A4613F8012B0AB106
:101D0000252AF9D1BAEB040B0BD05B4622462946B3
:101D10003846FFF76DFF013000F0AA80099A5A4457
:101D200009929AF80030002B00F0A28000234FF0B7
:101D3000FF32CDE905230AF1010A049307938DF8D8
:101D400053301A935446052214F8011B5148FEF7EC
:101D500047FA049AD8B9D00644BF20238DF85330EF
:101D6000110744BF2B238DF853309AF800302A2BEB
:101D700015D0079A544600204FF00A0C214611F85E
:101D8000013B303B092B4ED9B0B1079214E0A0EBD8
:101D9000080309FA03F313430493A246D2E7039B13
:101DA000191D1B680391002BBBBF5B4242F002026E
:101DB00007930793B8BF049223782E2B0CD1637836
:101DC0002A2B35D1039B1A1D1B680392002BB8BF29
:101DD0004FF0FF3302340593DFF8C8A021780322C7
:101DE0005046FEF7FDF940B14023A0EB0A0003FA8C
:101DF00000F0049B03430134049314F8011B2648AC
:101E00008DF828100622FEF7EBF9002838D0234B76
:101E10001BBB039B073323F0070308330393099B82
:101E20003344099367E70CFB02320C460120A5E717
:101E300000230134059319464FF00A0C204610F890
:101E4000012B303A092A03D9002BC5D00591C3E7ED
:101E50000CFB012104460123F0E703AB00932A4663
:101E60000F4B04A93846AFF30080421C0646D6D17A
:101E7000AB895B063FF52CAF09981DB0BDE8F08F2C
:101E800003AB00932A46064B04A9384600F07AF8C3
:101E9000EBE700BFBC240008C624000800000000D7
:101EA000F11B0008C22400082DE9F04716469946A8
:101EB0008A680B69DDF820809342B8BF134633600F
:101EC00091F8432007460C460AB10133336023687A
:101ED000990642BF336802333360256815F0060562
:101EE00006D104F1190AE36832689B1AAB4226DC7A
:101EF00094F84320131E226818BF012392062BD4A6
:101F000004F1430249463846C04701301ED02368D9
:101F1000E568326803F00603042B08BFAD1AA36816
:101F200022690CBF25EAE57500259342C4BF9B1AC0
:101F3000ED1800261A34B5421AD1002008E001231A
:101F4000524649463846C047013003D14FF0FF3072
:101F5000BDE8F0870135C6E7E1185A1C302081F84A
:101F60004300224494F8451082F843100233C7E737
:101F70000123224649463846C0470130E6D00136A3
:101F8000D9E700002DE9FF470C469146277E0C99C2
:101F9000782F80469A4604F1430207D8622F0AD868
:101FA000002F00F0D880582F00F0A38004F14206E3
:101FB00084F842703AE0A7F16303152BF6D801A02C
:101FC00050F823F01D20000831200008AD1F000844
:101FD000AD1F0008AD1F0008AD1F0008312000082C
:101FE000AD1F0008AD1F0008AD1F0008AD1F0008A1
:101FF0003D210008612000081F210008AD1F0008D6
:10200000AD1F00085F210008AD1F00086120000817
:10201000AD1F0008AD1F0008272100080B681A1D1E
:102020001B680A6004F1420684F842300123A3E0F1
:10203000256808682E0600F104030AD505680B60C0
:10204000002D03DA2D236D4284F843305E480A23C5
:1020500019E015F0400F05680B6018BF2DB2EFE7CF
:102060000B682568181D0860280601D51D6802E068
:102070006906FBD51D8854486F2F0CBF08230A231F
:10208000002184F843106668A660002EA2BF216874
:1020900021F0040121600DB9002E4DD01646B5FB8C
:1020A000F3F103FB1157C75D06F8017D2F46BB42D4
:1020B0000D46F4D9082B0BD12368DF0708D5236917
:1020C00061689942DEBF302306F8013C06F1FF3615
:1020D000921B2261CDF800A04B4603AA2146404640
:1020E000FFF7E2FE01304CD14FF0FF3004B0BDE805
:1020F000F087354884F8457023680E681F0656F847
:10210000045B0E6014D5D90744BF43F0200323605D
:102110001DB9236823F0200323601023B0E7236850
:1021200043F0200323607823284884F84530E3E710
:102130005E0648BFADB2E6E71646BBE70B68266809
:1021400060691D1D0D6035061B6801D5186002E031
:102150007106FBD51880002323611646BAE70B6889
:102160001A1D0A601E68626800213046FEF738F8C2
:1021700008B1801B606063682361002384F84330EA
:10218000A8E72369324649464046D0470130ABD0E4
:1021900023689B0713D4E068039B9842B8BF184696
:1021A000A4E70123324649464046D04701309BD040
:1021B0000135E36803995B1AAB42F2DCEBE70025DB
:1021C00004F11906F5E700BFCD240008DE2400085D
:1021D0000A44914200F1FF3300D1704710B511F865
:1021E000014B03F8014F9142F9D110BD884210B55F
:1021F00001EB020402D98442234607D8431EA142C0
:1022000008D011F8012B03F8012FF8E7024401462A
:102210008A4200D110BD13F8014D02F8014DF7E7D5
:1022200037B5002948D051F8043C0190002BA1F1AA
:102230000404B8BFE41800F0D3F8204A01981368EA
:10224000154633B96360146003B0BDE8304000F058
:10225000CDB8A3420BD921686218934204BF1A6813
:102260005B68636004BF521822602C60ECE71A467A
:102270005B680BB1A342FAD911685518A5420BD17E
:10228000246821445418A3421160DDD11C685B68A6
:10229000536021441160D7E702D90C230360D3E7D0
:1022A000256861198B4204BF19685B68636004BFCD
:1022B000491921605460C7E703B030BD9000002089
:1022C000F8B5CD1C25F0030508350C2D38BF0C25BD
:1022D000002D064601DBA94203D90C233360002000
:1022E000F8BD00F07DF821490A6814469CB9204FDA
:1022F0003B6823B92146304600F062F83860294631
:10230000304600F05DF8431C23D10C233360304687
:1023100000F06CF8E3E723685B1B17D40B2B03D9A1
:1023200023601C44256004E06368A2420CBF0B607C
:102330005360304600F05AF804F10B00231D20F0E2
:102340000700C21ACCD01B1AA350C9E72246646802
:10235000CCE7C41C24F00304A042E3D0211A304689
:1023600000F02EF80130DDD1CFE700BF9000002053
:1023700094000020F8B5074614460E4621B9BDE882
:10238000F8401146FFF79CBF22B9FFF749FF2546E9
:102390002846F8BD00F030F8A0420FD2214638465A
:1023A000FFF78EFF05460028F2D031462246FFF7A0
:1023B0000FFF31463846FFF733FFE9E73546E7E7D9
:1023C00038B5064D0023044608462B6000F01EF881
:1023D000431C02D12B6803B1236038BD14020020D6
:1023E000014800F011B800BF1C020020014800F0B5
:1023F0000CB800BF1C02002051F8043C181F002B31
:10240000BCBF0B58C018704770477047044A054955
:102410001368002B08BF0B4618441060184670471D
:102420009800002028020020F8B500BFF8BC08BCC6
:102430009E467047F8B500BFF8BC08BC9E46704782
:10244000506F733A20252E3666207261642C204529
:1024500072726F72733A20256C752C2043524320A0
:102460004F4B3A20256C752C204352432045727205
:102470003A20256C750D0A0053544D3332463430E2
:1024800037205961736B61776120456E636F6465B6
:102490007220526561646572205374617274656460
:1024A0000D0A00000000000000000000010203040B
:1024B000060708090000000001020304232D302B49
:1024C0002000686C4C006566674546470030313235
:1024D000333435363738394142434445460030318C
:1024E00032333435363738396162636465660000EB
:0824F000C0DDFF7F01000000C8
:0424F800B501000822
:0424FC009101000842
:102500000024F40001000000100000001000002072
:1025100000000000000000000000000000000000BB
:1025200000000000000000000000000000000000AB
:10253000000000000000000000000000000000009B
:10254000000000000000000000000000000000008B
:10255000000000000000000000000000000000007B
:10256000000000000000000000000000000000006B
:0400000508001ADDF8
:00000001FF
