:020000040800F2
:1000000000000220791B0008C91B0008C91B00085A
:10001000C91B0008C91B0008C91B0008000000001C
:10002000000000000000000000000000C91B0008E4
:10003000C91B000800000000C91B0008C91B0008FC
:10004000C91B0008C91B0008C91B0008C91B000800
:10005000C91B0008C91B0008C91B0008C91B0008F0
:10006000C91B0008C91B0008C91B0008C91B0008E0
:10007000C91B0008C91B0008C91B0008C91B0008D0
:10008000C91B0008C91B0008C91B0008C91B0008C0
:10009000C91B0008C91B0008C91B0008C91B0008B0
:1000A000C91B0008C91B0008C91B0008C91B0008A0
:1000B000C91B0008C91B0008C91B0008C91B000890
:1000C000C91B0008C91B0008C91B0008C91B000880
:1000D000C91B0008AD060008C91B0008C91B0008A1
:1000E000C91B0008C91B0008C91B0008C91B000860
:1000F000C91B0008C91B0008C91B0008C91B000850
:10010000C91B0008C91B0008C91B0008C91B00083F
:10011000C91B0008C91B0008C91B0008C91B00082F
:10012000C91B0008C91B0008C91B0008C91B00081F
:10013000C91B0008C91B0008C91B0008C91B00080F
:10014000C91B0008C91B0008C91B0008C91B0008FF
:10015000C91B0008C91B0008C91B0008C91B0008EF
:10016000C91B0008C91B0008C91B0008C91B0008DF
:10017000C91B0008C91B0008C91B0008C91B0008CF
:08018000C91B0008C91B00089F
:1001900010B5054C237833B9044B13B10448AFF3C1
:1001A00000800123237010BD7000002000000000BB
:1001B000C424000808B5034B1BB103490348AFF33F
:1001C000008008BD0000000074000020C424000866
:1001D000034613F8012B002AFBD1181A0138704787
:1001E00001F0FF01102A2BDB10F0070F08D010F8E8
:1001F000013B013A8B422DD010F0070F42B3F6D1EC
:10020000F0B441EA012141EA014122F007047FF004
:1002100000070023F0E80256083C85EA010586EA5B
:10022000010685FA47F5A3FA87F586FA47F6A5FA97
:1002300087F68EB9EED1F0BC01F0FF0102F00702A3
:1002400032B110F8013B013A83EA010313B1F8D14E
:100250000020704701387047002D06BF354603382F
:10026000073815F0010F07D1013015F4807F02BF68
:10027000013015F4C03F0130F0BC0138704700BFB9
:1002800053B94AB9002908BF00281CBF4FF0FF31FD
:100290004FF0FF3000F06EB9ADF1080C6DE904CEFF
:1002A00000F006F8DDF804E0DDE9022304B0704751
:1002B0002DE9F047089D04468C46002B40F08380D2
:1002C0008A42174647D9B2FA82F242B1C2F12000FF
:1002D00024FA00F09140974040EA010C94404FEA24
:1002E0001748230CBCFBF8F61FFA87FE08FB16C163
:1002F00043EA014306FB0EF1994209D9FB1806F1C6
:10030000FF3080F01981994240F21681023E3B4451
:100310005B1AA4B2B3FBF8F008FB103344EA0344C1
:1003200000FB0EFEA64509D93C1900F1FF3380F011
:100330000581A64540F2028102383C4440EA06406D
:10034000A4EB0E0400261DB1D4400023C5E90043F0
:100350003146BDE8F08702B9FFDEB2FA82F2002A28
:1003600050D1CB1B4FEA174E1FFA87F80126B3FB7B
:10037000FEFC210C0EFB1C3341EA034108FB0CF38D
:100380008B4207D979180CF1FF3002D28B4200F270
:10039000E9808446C91AA3B2B1FBFEF00EFB10112E
:1003A00043EA014408FB00F8A04507D93C1900F1D5
:1003B000FF3302D2A04500F2D9801846A4EB08040E
:1003C00040EA0C40BFE78B4209D9002D00F0B18014
:1003D0000026C5E9000130463146BDE8F087B3FA92
:1003E00083F6002E4AD18B4202D3824200F2B880BB
:1003F000841A61EB030101208C46002DA8D0C5E9C9
:10040000004CA5E7C2F1200320FA03F6974001FA59
:1004100002F04FEA174ED9403043030CB1FBFEF611
:100420001FFA87F80EFB161143EA014306FB08F199
:10043000994204FA02F409D9FB1806F1FF3C80F056
:100440008D80994240F28A80023E3B445B1A81B221
:10045000B3FBFEF00EFB103341EA034100FB08F34F
:100460008B4207D9791800F1FF3C73D28B4271D9C6
:1004700002383944CB1A40EA064678E7C6F1200C28
:1004800003FA06F422FA0CF31C4320FA0CF701FAE3
:1004900006F34FEA144E21FA0CF11F433B0CB1FB5B
:1004A000FEF91FFA84F80EFB191143EA014109FB1A
:1004B00008FA8A4502FA06F200FA06F308D961182A
:1004C00009F1FF3048D28A4546D9A9F102092144F1
:1004D000A1EB0A01BFB2B1FBFEF00EFB101147EA1F
:1004E000014700FB08F8B84507D9E71900F1FF31CB
:1004F0002ED2B8452CD90238274440EA0940A7EB50
:100500000807A0FB02894F45C64649461AD317D0B3
:100510005DB1B3EB0E0267EB010707FA0CFCF2408A
:100520004CEA0202F740C5E9002700263146BDE843
:10053000F0872E4628460BE70646E9E61846FDE614
:100540004345E5D2B8EB020E69EB04010138DFE761
:100550000846D2E760468DE78146B9E7664675E70B
:1005600030464AE7ACF1020C394413E702383C4408
:1005700024E700BF704700BF10B50A4C0A4B236048
:1005800060600023A360E3602361A3610C236361C7
:10059000204601F040F801220449204601F0CFFA3C
:1005A00010BD00BF9C00002000100140E4000020AE
:1005B00002681E4B9A4200D0704710B588B00021E7
:1005C000019103F594331A6B42F001021A631A6B1E
:1005D00002F001020192019A02915A6C42F010025B
:1005E0005A645B6C03F010030293029B4FF4007398
:1005F0000393022304930122059206930723079392
:100600000B4C03A9204600F0BBFA4FF48063039320
:1006100003A9204600F0B4FA252000F01FFA0322B7
:100620001146252000F0E6F908B010BD0010014089
:10063000000002400268194B9A4200D07047184AE5
:100640001388B2F90020002AF8DB13F4804F0ED093
:10065000144A12780A2A03D0114B00221A807047DC
:100660006FEA43436FEA53430D4A138070470D4AC4
:1006700012780D2A0DD0C3F30D010B4842540133FB
:100680009BB2074A1380C72BD8D9134600221A8081
:10069000D4E743F48043024A1380704700100140BE
:1006A0008C000020E4000020E800002008B5084885
:1006B00001F0D2F8064801F021FA2028FAD10122EF
:1006C0000449034801F03BFA0028F8D108BD00BFF7
:1006D0009C000020E400002008B5042000F0E2F9AE
:1006E00008BD00002DE9F04188B000240094304B93
:1006F0001A6B42F001021A631A6B02F001020092B7
:10070000009A01941A6B42F040021A631A6B02F0CD
:1007100040020192019A02941A6B42F020021A637D
:100720001B6B03F020030293029B4FF400730393AF
:100730004FF00208CDF81080059403250695072791
:1007400007971C4E03A9304600F01AFA4FF4806355
:100750000393CDF8108005940695079703A93046BA
:1007600000F00EFA4FF48076039601270497059463
:100770000695114D03A9284600F002FA224631469B
:10078000284600F0E7FA4FF4C066039604970594F4
:100790000694A5F5806503A9284600F0F1F92246E4
:1007A0003146284600F0D6FA08B0BDE8F08100BF17
:1007B00000380240000002400018024072B6FEE716
:1007C00000B595B03022002108A801F023FA0023DB
:1007D000039304930593069307930193214A116CA5
:1007E00041F080511164126C02F080520192019A22
:1007F00002931D4B1A6842F480421A601B6803F48E
:1008000080430293029B012308934FF480330993A2
:1008100002230E934FF480020F92082210924FF49D
:10082000A872119212930723139308A800F0A2FA5A
:1008300098B90F23039302230493002305934FF4E5
:10084000A05306934FF480530793052103A800F0AB
:10085000DDFC20B915B05DF804FBFFF7AFFFFFF733
:10086000ADFF00BF003802400070004030B5C5B099
:1008700000F07AF8FFF7A4FFFFF734FFA820FFF796
:100880002BFF4FF4E130FFF777FE39AC1F4D0FCD52
:100890000FC40FCD0FC495E8070003C424F8022B42
:1008A000120C227039A8FFF793FC4FF47A7382B2CE
:1008B00039A9174800F0DFFE154B1B681B6813F0C1
:1008C000400FF9D00DE0134C4FF40071204600F0BA
:1008D00047FA4FF48061204600F042FA642000F0AD
:1008E00063F8002304930393029300220023CDE9CD
:1008F0000023094AC82107A801F094F9044B1B689A
:100900001B6813F0400FF9D0DDE700BF1425000885
:100910009C00002000140240DC24000810B50446AE
:100920000E4B18784FF47A73B3FBF0F30C4A10684F
:10093000B0FBF3F000F0A0F868B90F2C01D901204A
:100940000AE0002221464FF0FF3000F053F8054B3B
:100950001C60002000E0012010BD00BF000000204E
:10096000080000200400002008B50B4B1A6842F470
:1009700000721A601A6842F480621A601A6842F4BF
:1009800080721A60032000F023F80F20FFF7C6FFE3
:1009900000F0EFF9002008BD003C0240014B186850
:1009A000704700BF1802002038B50446FFF7F6FF75
:1009B0000546B4F1FF3F02D0044B1B781C44FFF7FF
:1009C000EDFF401BA042FAD338BD00BF000000205D
:1009D000074AD36823F4E0631B041B0C000200F4F5
:1009E000E060034343F0BF6343F40033D3607047D8
:1009F00000ED00E030B4174BDB68C3F30223C3F112
:100A00000704042C28BF04241D1D062D18D9033B00
:100A10004FF0FF3505FA04F421EA0401994005FA84
:100A200003F322EA0303194300280BDB0901C9B2CF
:100A300000F1604000F5614080F8001330BC704761
:100A40000023E5E700F00F000901C9B2024B195479
:100A5000F4E700BF00ED00E014ED00E0002807DB44
:100A600000F01F02400901239340024A42F820305F
:100A7000704700BF00E100E00138B0F1807F0AD28A
:100A8000064B5860064AF02182F823100020986037
:100A900007221A6070470120704700BF10E000E095
:100AA00000ED00E0042805D0054A136823F0040394
:100AB00013607047024A136843F0040313607047E1
:100AC00010E000E070B50446866DFFF767FF94F80C
:100AD0003530DBB2022B06D080236365002384F817
:100AE0003430012070BD05462268136823F01603D8
:100AF00013602268536923F080035361236CE3B1D0
:100B00002268136823F0080313602268136823F037
:100B10000103136023681B6813F0010F11D0FFF766
:100B20003DFF431B052BF5D920236365032084F883
:100B30003500002384F83430D4E7A36C002BDFD1D8
:100B4000E3E7E26D3F239340B360012384F835303F
:100B5000002084F83400C5E790F83530DBB2022B72
:100B600003D08023436501207047052380F835308A
:100B70000268136823F0010313600020704700002F
:100B800000230F2B00F2DD80F0B482B05DE08668B8
:100B90005F000324BC4026EA0406CC68BC40344312
:100BA0008460466826EA02064C68C4F300129A4044
:100BB0003243426057E0DC08083450F8247003F0F8
:100BC000070296000F22B24027EA02070A69B240E4
:100BD0003A4340F824205AE0072200E00022B240C5
:100BE0003A430234574E46F82420574A9468EA4361
:100BF00024EA05064F6817F4801F01D045EA040671
:100C0000514CA660E46802EA04064F6817F4001F1E
:100C100001D045EA04064C4CE660646802EA04062A
:100C20004F6817F4003F01D045EA0406464C666061
:100C3000246822404E6816F4803F01D045EA040241
:100C4000414C226001330F2B78D801229A400C6866
:100C500004EA020532EA0404F4D14C6804F0030407
:100C6000013C012C93D94A6802F00302032A09D0FF
:100C7000C4685E000322B24024EA02048A68B240DB
:100C80002243C2604A6802F00302022A93D0046839
:100C90005E000322B24024EA02044A6802F0030222
:100CA000B240224302604A6812F4403FCAD0002298
:100CB0000192264A546C44F480445464526C02F409
:100CC00080420192019A9C08A61C1E4A52F8267086
:100CD00003F0030296000F22B24027EA02071C4AE3
:100CE00090423FF47BAF02F5806290421AD002F549
:100CF0008062904218D002F58062904216D002F5D0
:100D00008062904214D002F58062904212D002F5C7
:100D10008062904210D002F5806290423FF45CAF56
:100D200008225CE701225AE7022258E7032256E72D
:100D3000042254E7052252E7062250E702B0F0BC35
:100D40007047704700380140003C014000380240C5
:100D5000000002400AB18161704709048161704757
:100D6000436901EA030221EA030141EA0241816188
:100D700070477047002800F0DF8170B582B00446EC
:100D8000036813F0010F3BD0A64B9B6803F00C03E4
:100D9000042B2CD0A34B9B6803F00C03082B21D011
:100DA0006368B3F5803F4FD0B3F5A02F52D09D4B71
:100DB0001A6822F480321A601A6822F480221A60BB
:100DC0006368002B50D0FFF7E9FD0546954B1B6883
:100DD00013F4003F14D1FFF7E1FD401B6428F5D95F
:100DE0000320B0E18F4B5B6813F4800FD8D08D4B9C
:100DF0001B6813F4003F03D06368002B00F09E8152
:100E0000236813F0020F54D0864B9B6813F00C0F2D
:100E10003ED0844B9B6803F00C03082B33D0E3686F
:100E2000002B67D0804B01221A60FFF7B7FD054603
:100E30007C4B1B6813F0020F53D1FFF7AFFD401B33
:100E40000228F5D903207EE1764A136843F4803303
:100E50001360B5E7734B1A6842F480221A601A686F
:100E600042F480321A60ABE7FFF798FD05466D4B00
:100E70001B6813F4003FC3D0FFF790FD401B6428AC
:100E8000F5D903205FE1674B5B6813F4800FC6D18F
:100E9000644B1B6813F0020F03D0E368012B40F092
:100EA0004F81604A136823F0F803216943EAC103C4
:100EB0001360236813F0080F40D0636963B35B4B82
:100EC00001221A60FFF76AFD0546564B5B6F13F06F
:100ED000020F33D1FFF762FD401B0228F5D9032032
:100EE00031E1504A136823F0F803216943EAC10352
:100EF0001360DEE74C4B00221A60FFF74FFD0546FA
:100F0000484B1B6813F0020FD3D0FFF747FD401B7F
:100F10000228F5D9032016E1444B00221A60FFF79E
:100F20003DFD05463F4B5B6F13F0020F06D0FFF708
:100F300035FD401B0228F5D9032004E1236813F096
:100F4000040F78D0374B1B6C13F0805F0DD100235A
:100F50000193344B1A6C42F080521A641B6C03F0FC
:100F600080530193019B012500E00025304B1B6855
:100F700013F4807F21D0A368012B32D0052B36D00B
:100F8000284B1A6F22F001021A671A6F22F004022E
:100F90001A67A368002B34D0FFF700FD0646214BEB
:100FA0001B6F13F0020F45D1FFF7F8FC801B41F2D5
:100FB00088339842F3D90320C5E01D4A136843F4EF
:100FC00080731360FFF7EAFC0646194B1B6813F4A5
:100FD000807FD0D1FFF7E2FC801B0228F5D90320E7
:100FE000B1E0104A136F43F001031367D1E70D4BD3
:100FF0001A6F42F004021A671A6F42F001021A6770
:10100000C7E7FFF7CBFC0646064B1B6F13F0020F3A
:1010100010D0FFF7C3FC801B41F288339842F3D90C
:10102000032090E00038024000004742800E474213
:1010300000700040EDB9A369002B00F08380494A9D
:10104000926802F00C02082A51D0022B17D0464BAE
:1010500000221A60FFF7A2FC0446424B1B6813F003
:10106000007F42D0FFF79AFC001B0228F5D903202D
:1010700069E03C4A136C23F080531364DBE73A4B7E
:1010800000221A60FFF78AFC0546364B1B6813F0F6
:10109000007F06D0FFF782FC401B0228F5D9032011
:1010A00051E0E369226A1343626A43EA8213A26A47
:1010B0005208013A43EA0243E26A43EA0263294AD8
:1010C0005360294B01221A60FFF768FC0446254B48
:1010D0001B6813F0007F06D1FFF760FC001B02289D
:1010E000F5D903202FE000202DE000202BE0012B7C
:1010F0002BD01C4B5B6803F48001E269914226D13E
:1011000003F03F02216A8A4223D1616A47F6C07226
:101110001A40B2EB811F1ED103F44031A26A52087B
:10112000013AB1EB024F18D103F07063E26AB3EBFE
:10113000026F14D1002006E001207047012002E078
:10114000012000E0002002B070BD0120FBE701207B
:10115000F9E70120F7E70120F5E70120F3E7012097
:10116000F1E700BF0038024060004742F8B5244B69
:101170009B6803F00C03042B3DD0082B3DD1204B82
:101180005A6802F03F025B6813F4800F12D01C4BC8
:101190005968C1F3881100231A48A1FB0001FFF729
:1011A0006FF8174B5B68C3F3014301335B00B0FB7F
:1011B000F3F023E0124B5B68C3F388135C01002556
:1011C000E41A65F10005AE0146EA9466A701381BF2
:1011D00066EB0501CC0044EA5074C500E81844F100
:1011E00000018B0243EA90538402204619460023F3
:1011F000FFF746F8D5E7034800E00348F8BD00BF15
:101200000038024040787D010024F400002800F0FE
:101210009B8070B50D4604464F4B1B6803F00703D7
:101220008B4208D2CBB24C4A1370136803F0070309
:101230008B4240F08B80236813F0020F17D013F01D
:10124000040F04D0454A936843F4E0539360236845
:1012500013F0080F04D0414A936843F4604393604D
:101260003E4A936823F0F003A1680B439360236820
:1012700013F0010F32D06368012B21D09A1E012A8E
:1012800025D9364A126812F0020F61D033498A68B4
:1012900022F0030213438B60FFF780FB06462F4BBF
:1012A0009B6803F00C036268B3EB820F16D0FFF764
:1012B00075FB801B41F288339842F0D9032042E04D
:1012C000264A126812F4003FE0D101203BE0234A95
:1012D000126812F0007FD9D1012034E01E4B1B6848
:1012E00003F00703AB4207D9EAB21B4B1A701B6825
:1012F00003F00703AB422DD1236813F0040F06D08F
:10130000164A936823F4E053E1680B439360236823
:1013100013F0080F07D0114A936823F46043216942
:1013200043EAC1039360FFF721FF0C4B9B68C3F3B3
:1013300003130B4AD35CD8400A4B18600A4B186859
:10134000FFF7ECFA002070BD012070470120FAE79A
:101350000120F8E70120F6E7003C02400038024097
:10136000402500080800002004000020014B1868F8
:10137000704700BF0800002008B5FFF7F7FF044BD7
:101380009B68C3F38223034AD35CD84008BD00BFE7
:10139000003802405025000808B5FFF7E7FF044B6E
:1013A0009B68C3F34233034AD35CD84008BD00BFF7
:1013B0000038024050250008026802F10C0353E88F
:1013C000003F23F490730C3242E800310029F3D13E
:1013D000026802F1140353E8003F23F001031432C2
:1013E00042E800310029F3D1036B012B05D0202303
:1013F00080F84230002303637047026802F10C0357
:1014000053E8003F23F010030C3242E8003100297A
:10141000F3D1ECE790F84130DBB2212B01D0022070
:1014200070478368B3F5805F17D0036A5A1C026265
:101430001A7803685A60C38C9BB2013B9BB2C38489
:101440004BB90268D36823F08003D3600268D36885
:1014500043F04003D360002070470369002BE4D1C0
:10146000036A1B880268C3F308035360036A0233EC
:101470000362E0E770B504460268136923F4405341
:10148000C1680B43136183680269134342691343C4
:10149000C2691A430168CB6823F4164323F00C0396
:1014A0001343CB600268536923F4407381690B4393
:1014B00053610368344A934206D002F58062934236
:1014C00002D0FFF759FF01E0FFF766FFE369B3F5CC
:1014D000004F2AD00026051846EB06012D1846EBD2
:1014E0000101CB0043EA5573EA00154619466368CB
:1014F0009A009B0F281846EB0101FEF7C1FE234D11
:10150000A5FB00325109642303FB11031B01323395
:10151000A5FB03235B0903F0F00202EB011203F0C9
:101520000F03216813448B6070BD0026051846EB3D
:1015300006012D1846EB0101CB0043EA5573EA0082
:101540001546194662683346921846EB030328187D
:1015500046EB0101FEF794FE0C4DA5FB003251094C
:10156000642303FB1103DB003233A5FB03235B0978
:101570005A0002F4F87202EB011203F0070321682B
:1015800013448B60D0E700BF001001401F85EB5172
:101590002DE9F04383B005460E4617469946DDF81F
:1015A00028802C68246836EA04030CBF0124002438
:1015B000BC4228D1B8F1FF3FF3D0FFF7EFF9A0EB21
:1015C0000900404523D8B8F1000F22D02B68DA6813
:1015D00012F0040FE5D0802EE3D0402EE1D01A683F
:1015E00012F0080FDDD0002401941A6801925B68A4
:1015F0000193019B2846FFF7DFFE08236B6485F803
:101600004040012000E0002003B0BDE8F08303204B
:10161000FAE70320F8E760B310B5044690F84130CC
:1016200013B3242384F841302268D36823F4005391
:10163000D3602046FFF71EFF2268136923F490430E
:1016400013612268536923F02A0353612268D36827
:1016500043F40053D36000206064202384F84130B9
:1016600084F84230606310BD80F84030FEF7A0FF80
:10167000D7E7012070472DE9F04182B01E4690F86F
:101680004130DBB2202B56D104460D46904600294E
:1016900055D00AB901204FE000234364212380F88C
:1016A0004130FFF77BF90746A4F82480A4F8268090
:1016B000A368B3F5805F02D04FF0000814E02369FF
:1016C0002BB34FF000080FE0202384F841300320B3
:1016D00032E038F8023B2268C3F308035360E28C1F
:1016E00092B2013A92B2E284E38C9BB293B100963B
:1016F0003B46002280212046FFF74AFF0028E3D125
:10170000002DE6D015F8012B23685A60E7E7A846BC
:101710000025E9E700963B46002240212046FFF7DE
:1017200037FF18B9202384F8413005E0202384F8DE
:101730004130032000E0022002B0BDE8F08101202A
:10174000FAE7704708B50168CA6822F04002CA602B
:10175000202280F84120FFF7F4FF002008BD7047E9
:1017600008B5806B0023C385FFF7F9FF08BD7047FC
:1017700090F84230DBB2222B69D18368B3F5805FE9
:101780004FD0826AB3F5805F04D0002B56D1036935
:10179000002B53D103685B681370836A0133836243
:1017A000C38D9BB2013B9BB2C385002B51D100B5C9
:1017B00083B00268D36823F02003D3600268D36843
:1017C00023F48073D3600268536923F001035361EB
:1017D000202380F8423000234363036B012B33D175
:1017E00000230363026802F10C0353E8003F23F077
:1017F00010030C3242E800310029F3D103681A6863
:1018000012F0100F06D0002201921A6801925B6854
:101810000193019B818DFFF7AAFF002003B05DF8C3
:1018200004FB0269002AACD1826A03685B68C3F3D7
:1018300008031380836A02338362B1E703685B683D
:1018400003F07F031370A8E7FEF7F4FEE5E702203C
:10185000704700207047000030B583B0044602682E
:101860001368D068516913F00F0505D113F0200FEC
:1018700002D010F0200F19D12DB111F0010119D1B2
:1018800010F4907F16D1216B01297DD013F0800FC9
:1018900003D010F0800F40F0268113F0400F03D0EA
:1018A00010F0400F40F0238103B030BD2046FFF719
:1018B0005FFFF9E713F0010F06D010F4807F03D02B
:1018C000626C42F00102626413F0040F04D019B19B
:1018D000626C42F00202626413F0020F04D019B18C
:1018E000626C42F00402626413F0080F07D010F03B
:1018F000200F00D119B1626C42F008026264626C80
:10190000002AD1D013F0200F02D010F0200F29D1DF
:1019100023685B6903F04003626C12F0080F00D18A
:1019200063B32046FFF748FD23685B6913F0400F5F
:1019300020D0226802F1140353E8003F23F0400353
:10194000143242E800310029F3D1E36B73B16A4AE3
:101950001A65E06BFFF700F90028A5D0E06B036D76
:101960009847A1E72046FFF703FFD1E72046FFF79E
:10197000F6FE99E72046FFF7F2FE95E72046FFF7CF
:10198000EEFE002363648FE713F0100F3FF47EAF89
:1019900010F0100F3FF47AAF002301931368019306
:1019A00053680193019B536913F0400F5FD0E26BC2
:1019B00013685B689BB2002B4AD0A18D994247D92E
:1019C000E385D369B3F5807F37D0226802F10C0339
:1019D00053E8003F23F480730C3242E800310029C1
:1019E000F3D1226802F1140353E8003F23F001030E
:1019F000143242E800310029F3D1226802F11403C5
:101A000053E8003F23F04003143242E8003100293C
:101A1000F3D1202384F8423000232363226802F1AB
:101A20000C0353E8003F23F010030C3242E800316E
:101A30000029F3D1E06BFFF745F802236363A18D22
:101A4000E38D9BB2C91A89B22046FFF790FE2BE7BF
:101A5000A18D99427FF428AFD369B3F5807F7FF4DD
:101A600023AF022363632046FFF781FE1CE7A18DAD
:101A7000E38D9BB2C91A89B2E38D9BB2002B3FF470
:101A800013AF00293FF410AF226802F10C0353E8B2
:101A9000003F23F490730C3242E800300028F3D169
:101AA000226802F1140353E8003F23F001031432CB
:101AB00042E800300028F3D1202384F8423000238C
:101AC0002363226802F10C0353E8003F23F0100364
:101AD0000C3242E800300028F3D102236363204631
:101AE000FFF745FEE0E62046FFF794FCDCE62046E3
:101AF000FFF728FED8E600BF6117000890F84130D4
:101B000090F842001843704781628285C2850023A5
:101B10004364222380F84230036923B10268D3680A
:101B200043F48073D3600268536943F00103536147
:101B30000268D36843F02003D3600020704708B5E3
:101B400090F84230DBB2202B08D149B10AB901200C
:101B500008BD00230363FFF7D7FFF9E70220F7E78B
:101B60000120F5E7034AD2F8883043F47003C2F845
:101B70008830704700ED00E0DFF834D0002103E04A
:101B80000C4B5B58435004310B480C4B42189A42A3
:101B9000F6D30B4A02E0002342F8043B094B9A4279
:101BA000F9D3FFF7DFFF00F011F8FEF75FFEFEE765
:101BB000000002209C25000800000020700000208A
:101BC000700000202C020020FEE7000070B50D4DD3
:101BD0000D4C641BA4100026A64209D10B4D0C4CE1
:101BE00000F070FC641BA4100026A64205D170BD55
:101BF00055F8043B98470136EEE755F8043B984703
:101C00000136F2E794250008942500089425000881
:101C10009825000802440346934200D1704703F818
:101C2000011BF9E70CB430B5174B0C1E1D689DB0B5
:101C300008DA8B232B604FF0FF301DB0BDE8304039
:101C400002B070474FF40273ADF8143014BF04F1C2
:101C5000FF332346049307934FF6FF7302900690D9
:101C6000ADF81630209A21AB02A92846019300F066
:101C700069F8431CBCBF8B232B60002CDDD0029B7A
:101C800000221A70D9E700BF0C0000202DE9F047B0
:101C90008E689E4282460C4690461F4638D88A89F6
:101CA00012F4906F32D025680969A5EB01096569C6
:101CB00005EB450505EBD57501334B446D109D4291
:101CC00038BF1D46530531D5294600F047FB06466F
:101CD00050B90C23CAF80030A38943F04003A38114
:101CE0004FF0FF30BDE8F08721694A4600F0BEFAA8
:101CF000A38923F4906343F08003A3812661656187
:101D00004E44A5EB09052660A5603E46BE4200D9BB
:101D10003E4632462068414600F0B6FAA368226883
:101D20009B1B3244A36022600020DBE72A4600F0C0
:101D30006FFB06460028E1D12169504600F0BEFA4B
:101D4000C7E700002DE9F04F98468B891B069DB030
:101D500007460D4614460ED50B6963B9402100F0C5
:101D6000FDFA2860286120B90C233B604FF0FF305A
:101D7000D1E040236B610023099320238DF82930A3
:101D8000CDF80C803023DFF8A8818DF82A304FF091
:101D9000010923469A4613F8012B0AB1252AF9D1E5
:101DA000BAEB040B0BD05B46224629463846FFF7B8
:101DB0006DFF013000F0AA80099A5A4409929AF8FE
:101DC0000030002B00F0A28000234FF0FF32CDE95D
:101DD00005230AF1010A049307938DF853301A93EF
:101DE0005446052214F8011B5148FEF7F9F9049AEC
:101DF000D8B9D00644BF20238DF85330110744BF13
:101E00002B238DF853309AF800302A2B15D0079ADF
:101E1000544600204FF00A0C214611F8013B303B9C
:101E2000092B4ED9B0B1079214E0A0EB080309FAD0
:101E300003F313430493A246D2E7039B191D1B68C7
:101E40000391002BBBBF5B4242F002020793079352
:101E5000B8BF049223782E2B0CD163782A2B35D16E
:101E6000039B1A1D1B680392002BB8BF4FF0FF3372
:101E700002340593DFF8C8A0217803225046FEF70C
:101E8000AFF940B14023A0EB0A0003FA00F0049B35
:101E900003430134049314F8011B26488DF82810DD
:101EA0000622FEF79DF9002838D0234B1BBB039B6D
:101EB000073323F0070308330393099B3344099343
:101EC00067E70CFB02320C460120A5E70023013432
:101ED000059319464FF00A0C204610F8012B303AB2
:101EE000092A03D9002BC5D00591C3E70CFB0121BA
:101EF00004460123F0E703AB00932A460F4B04A9E5
:101F00003846AFF30080421C0646D6D1AB895B064B
:101F10003FF52CAF09981DB0BDE8F08F03AB0093DF
:101F20002A46064B04A9384600F07AF8EBE700BFD2
:101F30005825000862250008000000008D1C0008DC
:101F40005E2500082DE9F047164699468A680B6918
:101F5000DDF820809342B8BF1346336091F84320E8
:101F600007460C460AB1013333602368990642BF25
:101F7000336802333360256815F0060506D104F195
:101F8000190AE36832689B1AAB4226DC94F84320B6
:101F9000131E226818BF012392062BD404F14302BA
:101FA00049463846C04701301ED02368E56832688C
:101FB00003F00603042B08BFAD1AA36822690CBF07
:101FC00025EAE57500259342C4BF9B1AED1800264B
:101FD0001A34B5421AD1002008E00123524649467E
:101FE0003846C047013003D14FF0FF30BDE8F087DD
:101FF0000135C6E7E1185A1C302081F8430022441D
:1020000094F8451082F843100233C7E701232246B3
:1020100049463846C0470130E6D00136D9E70000CE
:102020002DE9FF470C469146277E0C99782F804674
:102030009A4604F1430207D8622F0AD8002F00F015
:10204000D880582F00F0A38004F1420684F8427033
:102050003AE0A7F16303152BF6D801A050F823F05E
:10206000B9200008CD2000084920000849200008B8
:102070004920000849200008CD2000084920000818
:10208000492000084920000849200008D9210008FB
:10209000FD200008BB210008492000084920000855
:1020A000FB21000849200008FD2000084920000805
:1020B00049200008C32100080B681A1D1B680A602C
:1020C00004F1420684F842300123A3E02568086841
:1020D0002E0600F104030AD505680B60002D03DA13
:1020E0002D236D4284F843305E480A2319E015F031
:1020F000400F05680B6018BF2DB2EFE70B6825682D
:10210000181D0860280601D51D6802E06906FBD588
:102110001D8854486F2F0CBF08230A23002184F820
:1021200043106668A660002EA2BF216821F004015A
:1021300021600DB9002E4DD01646B5FBF3F103FB1F
:102140001157C75D06F8017D2F46BB420D46F4D9F5
:10215000082B0BD12368DF0708D5236961689942F2
:10216000DEBF302306F8013C06F1FF36921B2261E8
:10217000CDF800A04B4603AA21464046FFF7E2FEF9
:1021800001304CD14FF0FF3004B0BDE8F087354846
:1021900084F8457023680E681F0656F8045B0E60CD
:1021A00014D5D90744BF43F0200323601DB9236829
:1021B00023F0200323601023B0E7236843F02003BB
:1021C00023607823284884F84530E3E75E0648BF5B
:1021D000ADB2E6E71646BBE70B68266860691D1DD1
:1021E0000D6035061B6801D5186002E07106FBD54D
:1021F0001880002323611646BAE70B681A1D0A608F
:102200001E68626800213046FDF7EAFF08B1801BB6
:10221000606063682361002384F84330A8E7236982
:10222000324649464046D0470130ABD023689B0731
:1022300013D4E068039B9842B8BF1846A4E7012373
:10224000324649464046D04701309BD00135E368CD
:1022500003995B1AAB42F2DCEBE7002504F11906A7
:10226000F5E700BF692500087A2500080A44914275
:1022700000F1FF3300D1704710B511F8014B03F89E
:10228000014F9142F9D110BD884210B501EB020413
:1022900002D98442234607D8431EA14208D011F830
:1022A000012B03F8012FF8E7024401468A4200D1CE
:1022B00010BD13F8014D02F8014DF7E737B50029BD
:1022C00048D051F8043C0190002BA1F10404B8BFA0
:1022D000E41800F0D3F8204A01981368154633B982
:1022E0006360146003B0BDE8304000F0CDB8A34295
:1022F0000BD921686218934204BF1A685B68636057
:1023000004BF521822602C60ECE71A465B680BB1E0
:10231000A342FAD911685518A5420BD1246821446B
:102320005418A3421160DDD11C685B6853602144DE
:102330001160D7E702D90C230360D3E72568611940
:102340008B4204BF19685B68636004BF4919216050
:102350005460C7E703B030BD90000020F8B5CD1C35
:1023600025F0030508350C2D38BF0C25002D064639
:1023700001DBA94203D90C2333600020F8BD00F033
:102380007DF821490A6814469CB9204F3B6823B95F
:102390002146304600F062F838602946304600F0A9
:1023A0005DF8431C23D10C233360304600F06CF8F9
:1023B000E3E723685B1B17D40B2B03D923601C4472
:1023C000256004E06368A2420CBF0B605360304696
:1023D00000F05AF804F10B00231D20F00700C21A88
:1023E000CCD01B1AA350C9E722466468CCE7C41CB2
:1023F00024F00304A042E3D0211A304600F02EF866
:102400000130DDD1CFE700BF900000209400002014
:10241000F8B5074614460E4621B9BDE8F840114606
:10242000FFF79CBF22B9FFF749FF25462846F8BDB4
:1024300000F030F8A0420FD221463846FFF78EFF59
:1024400005460028F2D031462246FFF70FFF3146FD
:102450003846FFF733FFE9E73546E7E738B5064D7D
:102460000023044608462B6000F01EF8431C02D1EE
:102470002B6803B1236038BD1C020020014800F026
:1024800011B800BF24020020014800F00CB800BFC2
:102490002402002051F8043C181F002BBCBF0B582D
:1024A000C018704770477047044A05491368002BED
:1024B00008BF0B461844106018467047980000206B
:1024C00030020020F8B500BFF8BC08BC9E4670473B
:0C24D000F8B500BFF8BC08BC9E46704781
:1024DC00506F733A20252E3666207261642C20458D
:1024EC0072726F72733A20256C752C204352432004
:1024FC004F4B3A20256C752C204352432045727269
:10250C003A20256C750D0A0053544D333246343045
:10251C0037205961736B61776120456E636F646519
:10252C0072205265616465722053746172746564C3
:10253C000D0A00000000000000000000010203046E
:10254C00060708090000000001020304232D302BAC
:10255C002000686C4C006566674546470030313298
:10256C0033343536373839414243444546003031EF
:10257C00323334353637383961626364656600004E
:08258C0024DDFF7F01000000C7
:04259400B501000885
:0425980091010008A5
:10259C0001000000100000000024F40010000020D6
:1025AC00000000000000000000000000000000001F
:1025BC00000000000000000000000000000000000F
:1025CC0000000000000000000000000000000000FF
:1025DC0000000000000000000000000000000000EF
:1025EC0000000000000000000000000000000000DF
:1025FC0000000000000000000000000000000000CF
:0400000508001B795B
:00000001FF
