:020000040800F2
:1000000000000220011B0008CB050008CD050008F8
:10001000CF050008D1050008D30500080000000046
:10002000000000000000000000000000D5050008EE
:10003000D705000800000000D9050008DB0500080E
:10004000511B0008511B0008511B0008511B0008E0
:10005000511B0008511B0008511B0008511B0008D0
:10006000511B0008511B0008511B0008511B0008C0
:10007000511B0008511B0008511B0008511B0008B0
:10008000511B0008511B0008511B0008511B0008A0
:10009000511B0008511B0008511B0008511B000890
:1000A000511B0008511B0008511B0008511B000880
:1000B000511B0008511B0008511B0008511B000870
:1000C000511B0008511B0008511B0008511B000860
:1000D000511B000879090008511B0008511B00083A
:1000E000511B0008511B0008511B0008511B000840
:1000F000511B0008511B0008511B0008511B000830
:10010000511B0008511B0008511B0008511B00081F
:10011000511B0008511B0008511B0008511B00080F
:10012000511B0008511B0008511B0008511B0008FF
:10013000511B0008511B0008511B0008511B0008EF
:10014000511B0008511B0008511B0008511B0008DF
:10015000511B0008511B0008511B0008511B0008CF
:10016000511B0008511B0008511B0008511B0008BF
:10017000511B0008511B0008511B0008511B0008AF
:08018000511B0008511B00088F
:1001880010B5054C237833B9044B13B10448AFF3C9
:1001980000800123237010BD7000002000000000C3
:1001A8005425000808B5034B1BB103490348AFF3B6
:1001B800008008BD000000007400002054250008DD
:1001C80053B94AB9002908BF00281CBF4FF0FF31B6
:1001D8004FF0FF3000F06EB9ADF1080C6DE904CEB8
:1001E80000F006F8DDF804E0DDE9022304B070470A
:1001F8002DE9F047089D04468C46002B40F083808B
:100208008A42174647D9B2FA82F242B1C2F12000B7
:1002180024FA00F09140974040EA010C94404FEADC
:100228001748230CBCFBF8F61FFA87FE08FB16C11B
:1002380043EA014306FB0EF1994209D9FB1806F17E
:10024800FF3080F01981994240F21681023E3B440A
:100258005B1AA4B2B3FBF8F008FB103344EA03447A
:1002680000FB0EFEA64509D93C1900F1FF3380F0CA
:100278000581A64540F2028102383C4440EA064026
:10028800A4EB0E0400261DB1D4400023C5E90043A9
:100298003146BDE8F08702B9FFDEB2FA82F2002AE1
:1002A80050D1CB1B4FEA174E1FFA87F80126B3FB34
:1002B800FEFC210C0EFB1C3341EA034108FB0CF346
:1002C8008B4207D979180CF1FF3002D28B4200F229
:1002D800E9808446C91AA3B2B1FBFEF00EFB1011E7
:1002E80043EA014408FB00F8A04507D93C1900F18E
:1002F800FF3302D2A04500F2D9801846A4EB0804C7
:1003080040EA0C40BFE78B4209D9002D00F0B180CC
:100318000026C5E9000130463146BDE8F087B3FA4A
:1003280083F6002E4AD18B4202D3824200F2B88073
:10033800841A61EB030101208C46002DA8D0C5E981
:10034800004CA5E7C2F1200320FA03F6974001FA12
:1003580002F04FEA174ED9403043030CB1FBFEF6CA
:100368001FFA87F80EFB161143EA014306FB08F152
:10037800994204FA02F409D9FB1806F1FF3C80F00F
:100388008D80994240F28A80023E3B445B1A81B2DA
:10039800B3FBFEF00EFB103341EA034100FB08F308
:1003A8008B4207D9791800F1FF3C73D28B4271D97F
:1003B80002383944CB1A40EA064678E7C6F1200CE1
:1003C80003FA06F422FA0CF31C4320FA0CF701FA9C
:1003D80006F34FEA144E21FA0CF11F433B0CB1FB14
:1003E800FEF91FFA84F80EFB191143EA014109FBD3
:1003F80008FA8A4502FA06F200FA06F308D96118E3
:1004080009F1FF3048D28A4546D9A9F102092144A9
:10041800A1EB0A01BFB2B1FBFEF00EFB101147EAD7
:10042800014700FB08F8B84507D9E71900F1FF3183
:100438002ED2B8452CD90238274440EA0940A7EB08
:100448000807A0FB02894F45C64649461AD317D06C
:100458005DB1B3EB0E0267EB010707FA0CFCF24043
:100468004CEA0202F740C5E9002700263146BDE8FC
:10047800F0872E4628460BE70646E9E61846FDE6CD
:100488004345E5D2B8EB020E69EB04010138DFE71A
:100498000846D2E760468DE78146B9E7664675E7C4
:1004A80030464AE7ACF1020C394413E702383C44C1
:1004B80024E700BF704700BF38B500F095FA07235E
:1004C800022208214FF4A87000F044F9A82000F097
:1004D8000DF94FF4E13000F0B1F900F0D9F800F06F
:1004E800A3F8002424E02A4801F0CAFB4FF47A73E9
:1004F800EAB22849284801F064F9274B1B681B68B1
:1005080013F0400FF9D0254801F0BAFB244B002224
:100518001A800DE0234801F0B3FB234801F0B0FB3B
:1005280019E0224801F0ACFB1FE00A2000F006F9B0
:100538001B4B1D88B3F90030002BD4DB0134A4B267
:100548001B4BA3FB04231B0B41F2883202FB134312
:100558009BB2002BDED0174BA3FB04239B09C822B8
:1005680002FB13439BB2002BDBD0134BA3FB0423EA
:1005780023F00F02A2EB13125300E31A9BB2002BD5
:10058800D3D10E4A1368B3FA83F35B091360CCE73F
:100598006C250008E4000020A00000208825000841
:1005A800900000208C250008C4250008E0250008DC
:1005B8005917B7D11F85EB5189888888A482424290
:1005C80070477047FEE7FEE7FEE7FEE770477047B3
:1005D800704708B500F01EFA08BD00000F49D1F8B1
:1005E800883043F47003C1F888300D4B1A6842F024
:1005F80001021A60002098601A6822F0847222F4BE
:1006080080321A60074A5A601A6822F480221A60F7
:10061800D8604FF000638B60704700BF00ED00E0CA
:10062800003802401030002470B588B000240194CE
:10063800144B1A6B42F001021A631A6B02F00102A2
:100648000192019A02941A6B42F010021A631B6B12
:1006580003F010030293029B0126039604940223DD
:1006680005930325069503A9074800F079FA1C238A
:10067800039304940596069503A9044800F070FABC
:1006880008B070BD0038024000000240001002406F
:1006980030B587B000230093124B1A6B42F020024A
:1006A8001A631B6B03F020030093009B4FF4C06395
:1006B8000193012402940394032304930A4D01A98E
:1006C800284600F04DFA22464FF40071284600F003
:1006D8002DFB22464FF48061284600F027FB07B027
:1006E80030BD00BF003802400014024010B5044677
:1006F800042000F011FA014B1C6010BD8C00002092
:1007080030B40C4B5D680C4A146800FB04F49B6819
:10071800002104E0E81A02441144A14208D21A4612
:10072800044B9B689A42FBD0F4D9D21A1144F4E7DF
:1007380030BC704710E000E08C00002038B505465A
:100748000024A54205D94FF47A70FFF7D9FF013488
:10075800F7E738BD70B594B000260196234C256C98
:1007680045F080552564246C04F080540194019C64
:1007780002961F4C256845F480452560246804F4DA
:1007880080440294029C012408944FF48034099414
:1007980002240E944FF480040F9410911190129239
:1007A800139308A800F0C8FA00B1FEE70F230393DB
:1007B80002230493002305934FF4A05306934FF4A8
:1007C80080530793052103A800F0E8FC00B1FEE779
:1007D80000F032F941F20103984201D014B070BD23
:1007E800044A136843F480731360F7E70038024043
:1007F80000700040003C024030B41046002408E07D
:10080800064B1B6813F0400FFAD00D5D034B5D607B
:1008180001348442F4DB30BC704700BF0010014053
:10082800002070474FF0FF307047002070474FF4AA
:1008380000534B60002070470120704710B50A4CE8
:100848000A4B236060600023A360E3602361A36117
:100858000C236361204600F085FF012204492046ED
:1008680001F01FF810BD00BFA000002000100140DB
:10087800E000002002681E4B9A4200D0704710B575
:1008880088B00021019103F594331A6B42F00102FC
:100898001A631A6B02F001020192019A02915A6CD2
:1008A80042F010025A645B6C03F010030293029B3F
:1008B8004FF40073039302230493012205920693D5
:1008C800072307930B4C03A9204600F049F94FF47E
:1008D8008063039303A9204600F042F9252000F025
:1008E800F7F803221146252000F0BEF808B010BD25
:1008F80000100140000002400268194B9A4200D0E3
:100908007047184A1388B2F90020002AF8DB13F45C
:10091800804F0ED0144A12780A2A03D0114B0022B5
:100928001A8070476FEA43436FEA53430D4A1380B6
:1009380070470D4A12780D2A0DD0C3F30D010B48EC
:10094800425401339BB2074A1380C72BD8D91346A8
:1009580000221A80D4E743F48043024A1380704788
:100968000010014090000020E0000020E40000207A
:1009780008B5084801F022F8064801F0B7F8202821
:10098800FAD101220449034800F08BFF0028F8D16E
:1009980008BD00BFA0000020E000002010B50446FC
:1009A8000E4B18784FF47A73B3FBF0F30C4A1068C7
:1009B800B0FBF3F000F09AF868B90F2C01D90120C8
:1009C8000AE0002221464FF0FF3000F04DF8054BB9
:1009D8001C60002000E0012010BD00BF04000020C2
:1009E800000000200800002008B5094B1A6842F4EE
:1009F80000721A601A6842F480621A60052000F0DA
:100A080021F80F20FFF7CAFFFFF7DAFD002008BD25
:100A1800003C0240034A1168034B1B780B441360E7
:100A2800704700BF1402002004000020014B186822
:100A3800704700BF14020020014B1868000C704773
:100A4800002004E0074AD36823F4E0631B041B0C6E
:100A5800000200F4E060034343F0BF6343F4003353
:100A6800D360704700ED00E030B4174BDB68C3F388
:100A78000223C3F10704042C28BF04241D1D062DDE
:100A880018D9033B4FF0FF3505FA04F421EA0401B5
:100A9800994005FA03F322EA0303194300280BDB04
:100AA8000901C9B200F1604000F5614080F8001307
:100AB80030BC70470023E5E700F00F000901C9B218
:100AC800024B1954F4E700BF00ED00E014ED00E01C
:100AD800002807DB00F01F02400901239340024A67
:100AE80042F82030704700BF00E100E00138B0F163
:100AF800807F0AD2064B5860064AF02182F82310FC
:100B08000020986007221A6070470120704700BFD4
:100B180010E000E000ED00E0042805D0054A136865
:100B280023F0040313607047024A136843F0040378
:100B38001360704710E000E090F83530DBB2022B0C
:100B480003D08023436501207047052380F83530A2
:100B58000268136823F00103136000207047000047
:100B680000230F2B00F2D980F0B482B039E00722BD
:100B780000E00022B2403A430234684E46F824208E
:100B8800674A1468EA4324EA05064F6817F4803F69
:100B980001D045EA0406624C2660646802EA04064D
:100BA8004F6817F4003F01D045EA04065C4C6660C4
:100BB800A46802EA04064F6817F4801F01D045EACA
:100BC8000406574CA660E46822404E6816F4001FDD
:100BD80001D045EA0402524CE26001330F2B00F2C7
:100BE800998001229A400C6804EA020532EA04045A
:100BF800F3D14C68022C01D0122C10D1DE08083633
:100C080050F826C003F00704A7000F24BC402CEAC4
:100C1800040C0C69BC4044EA0C0440F82640D0F8A7
:100C280000C05E000324B440E7432CEA040C4C687F
:100C380004F00304B44044EA0C0404604C6804F172
:100C4800FF3CBCF1010F03D9112C01D0122C10D19B
:100C5800846807EA040CCC68B44044EA0C04846055
:100C6800446824EA02024C68C4F300149C4014430C
:100C78004460C26817408A68B2403A43C2604A6812
:100C880012F0805FA9D000220192264A546C44F4E5
:100C980080445464526C02F480420192019A9C0888
:100CA800A61C1E4A52F8267003F0030296000F2273
:100CB800B24027EA02071C4A90423FF45AAF02F5B5
:100CC800806290421AD002F58062904218D002F5F4
:100CD8008062904216D002F58062904214D002F5EC
:100CE8008062904212D002F58062904210D002F5E4
:100CF800806290423FF43BAF08223BE7012239E78C
:100D0800022237E7032235E7042233E7052231E7D9
:100D180006222FE702B0F0BC704770470038014048
:100D2800003C014000380240000002400AB18161E5
:100D38007047090481617047002800F0B98170B5D7
:100D480082B00446036813F0010F3BD0A64B9B68A2
:100D580003F00C03042B2CD0A34B9B6803F00C036B
:100D6800082B21D06368B3F5803F4FD0B3F5A02F8F
:100D780052D09D4B1A6822F480321A601A6822F405
:100D880080221A606368002B50D0FFF74FFE05469B
:100D9800954B1B6813F4003F14D1FFF747FE401B27
:100DA8006428F5D903208AE18F4B5B6813F4800F20
:100DB800D8D08D4B1B6813F4003F03D06368002B19
:100DC80000F07881236813F0020F54D0864B9B689B
:100DD80013F00C0F3ED0844B9B6803F00C03082BD8
:100DE80033D0E368002B67D0804B01221A60FFF7ED
:100DF8001DFE05467C4B1B6813F0020F53D1FFF70D
:100E080015FE401B0228F5D9032058E1764A1368DD
:100E180043F480331360B5E7734B1A6842F48022B9
:100E28001A601A6842F480321A60ABE7FFF7FEFDD9
:100E380005466D4B1B6813F4003FC3D0FFF7F6FD62
:100E4800401B6428F5D9032039E1674B5B6813F42C
:100E5800800FC6D1644B1B6813F0020F03D0E36800
:100E6800012B40F02981604A136823F0F8032169B7
:100E780043EAC1031360236813F0080F40D0636985
:100E880063B35B4B01221A60FFF7D0FD0546564B52
:100E98005B6F13F0020F33D1FFF7C8FD401B022828
:100EA800F5D903200BE1504A136823F0F8032169B0
:100EB80043EAC1031360DEE74C4B00221A60FFF7D8
:100EC800B5FD0546484B1B6813F0020FD3D0FFF75A
:100ED800ADFD401B0228F5D90320F0E0444B002269
:100EE8001A60FFF7A3FD05463F4B5B6F13F0020F37
:100EF80006D0FFF79BFD401B0228F5D90320DEE052
:100F0800236813F0040F78D0374B1B6C13F0805F05
:100F18000DD100230193344B1A6C42F080521A64AD
:100F28001B6C03F080530193019B012500E0002511
:100F3800304B1B6813F4807F21D0A368012B32D07B
:100F4800052B36D0284B1A6F22F001021A671A6F48
:100F580022F004021A67A368002B34D0FFF766FD5D
:100F68000646214B1B6F13F0020F45D1FFF75EFDBC
:100F7800801B41F288339842F3D903209FE01D4A31
:100F8800136843F480731360FFF750FD0646194B4E
:100F98001B6813F4807FD0D1FFF748FD801B02281F
:100FA800F5D903208BE0104A136F43F00103136750
:100FB800D1E70D4B1A6F42F004021A671A6F42F01C
:100FC80001021A67C7E7FFF731FD0646064B1B6F9C
:100FD80013F0020F10D0FFF729FD801B41F2883370
:100FE8009842F3D903206AE00038024000004742E3
:100FF800800E474200700040E5B9A369002B5DD020
:10100800314A926802F00C02082A5AD0022B17D0F3
:101018002E4B00221A60FFF709FD04462A4B1B6875
:1010280013F0007F42D0FFF701FD001B0228F5D91D
:10103800032044E0244A136C23F080531364DCE754
:10104800224B00221A60FFF7F1FC05461E4B1B6875
:1010580013F0007F06D0FFF7E9FC401B0228F5D902
:1010680003202CE0E369226A1343626A43EA82138D
:10107800A26A5208013A43EA0243E26A43EA026377
:10108800114A5360114B01221A60FFF7CFFC044646
:101098000D4B1B6813F0007F06D1FFF7C7FC001B40
:1010A8000228F5D903200AE0002008E0002006E025
:1010B80001207047012002E0012000E0002002B07A
:1010C80070BD0120FBE700BF0038024060004742C6
:1010D800F8B52F4B9B6803F00C03042B53D0082B57
:1010E80053D12B4B5A6802F03F025B6813F4800F10
:1010F80028D0274B5B68C3F3881358010021C01A16
:1011080061F100018E0146EA906687013C1A66EBA0
:101118000105E90041EA5471E000C01841F10001FD
:101128004B0243EAD0534402204619460023FFF7F6
:1011380047F8174B5B68C3F3014301335B00B0FB0F
:10114800F3F023E0124B5B68C3F388135C010025BE
:10115800E41A65F10005AE0146EA9466A701381B5A
:1011680066EB0501CC0044EA5074C500E81844F168
:1011780000018B0243EA905384022046194600235B
:10118800FFF71EF8D5E7034800E00348F8BD00BFA5
:101198000038024000127A000024F400002800F011
:1011A8009A8070B50D4604464F4B1B6803F00F0339
:1011B8008B4208D2CBB24C4A1370136803F00F036A
:1011C8008B4240F08A80236813F0020F17D013F087
:1011D800040F04D0454A936843F4E05393602368AE
:1011E80013F0080F04D0414A936843F460439360B6
:1011F8003E4A936823F0F003A1680B439360236889
:1012080013F0010F32D06368012B21D09A1E012AF6
:1012180025D9364A126812F0020F60D033498A681D
:1012280022F0030213438B60FFF700FC06462F4BA6
:101238009B6803F00C036268B3EB820F16D0FFF7CC
:10124800F5FB801B41F288339842F0D9032041E036
:10125800264A126812F4003FE0D101203AE0234AFE
:10126800126812F0007FD9D1012033E01E4B1B68B1
:1012780003F00F03AB4207D9EAB21B4B1A701B6885
:1012880003F00F03AB422CD1236813F0040F06D0F0
:10129800164A936823F4E053E1680B43936023688C
:1012A80013F0080F07D0114A936823F460432169AB
:1012B80043EAC1039360FFF70BFF0C4B9B68C3F332
:1012C80003130B4AD35CD8400A4B18600F20FFF772
:1012D80065FB002070BD012070470120FAE701205E
:1012E800F8E70120F6E700BF003C02400038024062
:1012F8000426000800000020014B1868704700BF52
:101308000000002008B5FFF7F7FF044B9B68C3F304
:101318008223034AD35CD84008BD00BF003802408E
:101328001426000808B5FFF7E7FF044B9B68C3F3D2
:101338004233034AD35CD84008BD00BF003802409E
:10134800142600080268D36823F49073D3600268F7
:10135800536923F001035361202380F83A30704722
:1013680090F83930DBB2212B01D002207047836816
:10137800B3F5805F17D0036A5A1C02621A780368B3
:101388005A60C38C9BB2013B9BB2C3844BB90268C1
:10139800D36823F08003D3600268D36843F0400326
:1013A800D36000207047036A1B880268C3F30803F0
:1013B800536003691BB9036A02330362E1E7036AF6
:1013C80001330362DDE700002DE9F84304460268B3
:1013D800136923F44053C1680B431361836802699E
:1013E800134342691343C2691A430168CB6823F463
:1013F800164323F00C031343CB600268536923F4AC
:10140800407381690B435361C369B3F5004F60D0E2
:101418000368B84A934200F0148102F5806293424F
:1014280000F00F81FFF76EFF00EB800000EB8000FB
:101438006568AD00B0FBF5F5AF4EA6FB05356D0947
:101448002F01FFF75FFF00EB800505EB850563685B
:101458009B00B5FBF3F9FFF755FF00EB800000EBAD
:1014680080006568AD00B0FBF5F5A6FB05356D0994
:101478004FF0640808FB15952D013235A6FB05359C
:101488006D0905F0F0053D44FFF73CFF00EB8000D7
:1014980000EB80006768BF00B0FBF7F7FFF732FF8B
:1014A80000EB800000EB800063689B00B0FBF3F06A
:1014B800A6FB0030400908FB10784FEA081808F12D
:1014C8003208A6FB0836C6F3431623682E449E60EE
:1014D8000DE10368874A93425BD002F5806293422C
:1014E80057D0FFF70FFF00EB800000EB8000656826
:1014F8006D00B0FBF5F5804EA6FB05356D092F0193
:10150800FFF700FF00EB800000EB800065686D00CE
:10151800B0FBF5F9FFF7F6FE00EB800000EB80006A
:1015280065686D00B0FBF5F5A6FB05356D094FF054
:10153800640808FB1595ED003235A6FB05356D09E5
:101548006D0005F4F8753D44FFF7DCFE00EB800004
:1015580000EB800067687F00B0FBF7F7FFF7D2FE6B
:1015680000EB800000EB800063685B00B0FBF3F3E6
:10157800A6FB03235B0908FB13784FEAC80808F1A8
:101588003208A6FB0836C6F3421623682E449E602E
:10159800ADE0FFF7C7FE00EB800000EB8000656858
:1015A8006D00B0FBF5F5544EA6FB05356D092F010E
:1015B800FFF7B8FE00EB800000EB800065686D0067
:1015C800B0FBF5F9FFF7AEFE00EB800000EB800002
:1015D80065686D00B0FBF5F5A6FB05356D094FF0A4
:1015E800640808FB1595ED003235A6FB05356D0935
:1015F8006D0005F4F8753D44FFF794FE00EB80009C
:1016080000EB800067687F00B0FBF7F7FFF78AFE02
:1016180000EB800000EB800063685B00B0FBF3F335
:10162800A6FB03235B0908FB13784FEAC80808F1F7
:101638003208A6FB0836C6F3421623682E449E607D
:1016480055E0FFF76FFE00EB800000EB8000656857
:10165800AD00B0FBF5F5284EA6FB05356D092F0149
:10166800FFF760FE00EB800505EB850563689B00CE
:10167800B5FBF3F9FFF756FE00EB800000EB8000A6
:101688006568AD00B0FBF5F5A6FB05356D094FF0B3
:10169800640808FB15952D013235A6FB05356D0943
:1016A80005F0F0053D44FFF73DFE00EB800000EB40
:1016B80080006768BF00B0FBF7F7FFF733FE00EB69
:1016C800800000EB800063689B00B0FBF3F0A6FB92
:1016D8000030400908FB10784FEA081808F1320872
:1016E800A6FB0836C6F3431623682E449E60BDE861
:1016F800F88300BF001001401F85EB512DE9F84326
:1017080005460F4616469946DDF820802C68246861
:1017180037EA04030CBF01240024B4421FD1B8F1F6
:10172800FF3FF3D0B8F1000F05D0FFF77FF9A0EB2A
:1017380009004045EAD92A68D36823F4D073D360F6
:101748002A68536923F001035361202385F839304F
:1017580085F83A30002385F83830032000E000206F
:10176800BDE8F88358B310B5044690F839300BB388
:10177800242384F839302268D36823F40053D360D3
:101788002046FFF721FE2268136923F49043136172
:101798002268536923F02A0353612268D36843F40B
:1017A8000053D3600020E063202384F8393084F8A4
:1017B8003A3010BD80F83830FFF75CF8D8E70120E0
:1017C80070472DE9F04182B01E4690F83930DBB2FF
:1017D800202B58D104460D469046002957D0002AA0
:1017E80057D090F83830012B55D0012380F8383085
:1017F8000023C363212380F83930FFF717F9074620
:10180800A4F82480A4F8268017E000963B4600221E
:1018180080212046FFF772FF00283ED12B882268DE
:10182800C3F30803536023690BB9023505E001359A
:1018380003E015F8012B23685A60E38C9BB29BB137
:10184800E28C92B2013A92B2E284A368B3F5805F67
:10185800DBD000963B46002280212046FFF74EFF52
:101868000028E6D003200FE000963B4600224021E6
:101878002046FFF743FF90B9202384F8393000232E
:1018880084F8383000E0022002B0BDE8F081012081
:10189800FAE70120F8E70220F6E70320F4E703203F
:1018A800F2E790F83A30DBB2202B20D109B312B31B
:1018B80090F83830012B20D081628285C2850023C0
:1018C800C363222280F83A2080F838300168CA6859
:1018D80042F48072CA6001684A6942F001024A61B2
:1018E8000168CA6842F02002CA60184670470220A0
:1018F80070470120704701207047022070477047E9
:1019080008B50168CA6822F04002CA60202280F83F
:101918003920FFF7F4FF002008BD08B590F83A30E9
:10192800DBB2222B46D18368B3F5805F0FD0036901
:101938000BBB03685A68836A591C81621A70C38D8D
:101948009BB2013B9BB2C385F3B1002008BD826AFC
:10195800036943B903685B68C3F308031380836AA8
:1019680002338362EBE703685B68DBB21380836A48
:1019780001338362E3E703685B68826A511C816212
:1019880003F07F031370DAE70268D36823F02003BB
:10199800D3600268D36823F48073D3600268536904
:1019A80023F001035361202380F83A30FEF7A4FFA7
:1019B8000020CBE70220C9E77047000010B50446B5
:1019C80002681368D168526913F00F0005D113F04B
:1019D800200F02D011F0200F13D128B112F001020C
:1019E80013D111F4907F10D113F0800F02D011F0B1
:1019F800800F69D113F0400F02D011F0400F67D16A
:101A080010BD2046FFF789FFFAE713F0010F06D053
:101A180011F4807F03D0E06B40F00100E06313F025
:101A2800040F04D01AB1E06B40F00200E06313F039
:101A3800020F04D01AB1E06B40F00400E06313F029
:101A4800080F04D01AB1E26B42F00802E263E26BBD
:101A5800002AD5D013F0200F02D011F0200F21D189
:101A680023685B6903F04003E26B12F0080F00D1B2
:101A780023B32046FFF766FC23685A6912F0400F2B
:101A880018D05A6922F040025A61636B73B1124A46
:101A98001A65606BFFF750F80028B1D0606B036DD2
:101AA8009847ADE72046FFF738FFD9E72046FFF70C
:101AB80083FFA5E72046FFF77FFFA1E72046FFF752
:101AC8007BFF0023E3639BE72046FFF749FC97E78A
:101AD8002046FFF715FF93E7E51A000808B5806B65
:101AE8000023C385C384FFF767FF08BD90F839302A
:101AF80090F83A0018437047DFF834D0002103E02B
:101B08000C4B5B58435004310B480C4B42189A421B
:101B1800F6D30B4A02E0002342F8043B094B9A42F1
:101B2800F9D3FEF75BFD00F011F8FEF7C5FCFEE700
:101B3800000002209026000800000020700000200D
:101B48007000002028020020FEE7000070B50D4D4F
:101B58000D4C641BA4100026A64209D10B4D0C4C59
:101B680000F0F4FC641BA4100026A64205D170BD49
:101B780055F8043B98470136EEE755F8043B98477B
:101B88000136F2E78826000888260008882600081B
:101B98008C26000802440346934200D1704703F89C
:101BA800011BF9E770B50E46054618B183690BB9F4
:101BB80000F048FAAB69AC6813B9284600F042FA5D
:101BC8002C4B9C4220D16C68636EDB0705D4A3893B
:101BD800980502D4A06D00F0D3FAA38919071DD582
:101BE8002369DBB1013EA36816F8011F013BA3601E
:101BF80039BB002B38DA22460A21284600F048F87B
:101C0800013011D00A2511E01B4B9C4201D1AC6870
:101C1800DAE71A4B9C4208BFEC68D5E7214628460C
:101C280000F088F80028DDD04FF0FF35636EDA0742
:101C380005D4A3899B0502D4A06D00F0A2FA28461A
:101C480070BD002B04DAA2699A4206DC0A2904D086
:101C580023685A1C22601970C5E72246284600F0FE
:101C680017F80130BFD1DFE723680A255A1C226024
:101C78001D70DBE7402600086026000820260008C3
:101C8800024B01461868FFF78DBF00BF0C0000200B
:101C9800F8B50E461446054618B183690BB900F02D
:101CA800D1F9214B9C422BD16C68A369A360A3890D
:101CB8001A072FD523696BB323692068C01A636993
:101CC800F6B28342374604DC2146284600F026F95E
:101CD80030BBA368013BA36023685A1C22601E70B6
:101CE80063690130834204D0A389DB0706D50A2E35
:101CF80004D12146284600F011F988B93846F8BDC4
:101D08000A4B9C4201D1AC68CFE7094B9C4208BF03
:101D1800EC68CAE72146284600F00CF80028CBD02A
:101D28004FF0FF37EAE700BF4026000860260008AA
:101D380020260008324B70B51D6806460C4625B1B2
:101D4800AB6913B9284600F07DF92E4B9C420FD1A0
:101D58006C68A389B4F90C2019072CD4DD0611D4BA
:101D68000923336042F04003A3814FF0FF303EE087
:101D7800254B9C4201D1AC68EBE7244B9C4208BF41
:101D8800EC68E6E7580712D5616B41B104F14403EA
:101D9800994202D0304600F059FA00236363A389C0
:101DA80023F02403A3810023636023692360A389AC
:101DB80043F00803A38123694BB9A38903F4207373
:101DC800B3F5007F03D02146304600F0FFF9A08923
:101DD800B4F90C2010F001030AD00023A360636952
:101DE8005B42A361236943B910F08000BAD170BD8A
:101DF800810758BF6369A360F4E70020F7E700BFD5
:101E08000C00002040260008602600082026000854
:101E18008A892DE9F041054610070C4658D44B68CD
:101E2800002B05DC0B6C002B02DC0020BDE8F081E8
:101E3800E66A002EF9D0002312F480522F682B6036
:101E480032D0606DA3895A0705D56368C01A636BE1
:101E58000BB1236CC01A00230246E66A216A2846A1
:101E6800B047431CA38906D129681D292CD82A4AC2
:101E7800CA40D60728D500226260D90422692260A8
:101E880004D5421C01D12B6803B96065616B2F60D2
:101E98000029CAD004F14403994202D0284600F030
:101EA800D5F900206063C1E7216A01232846B047BD
:101EB800411CC7D12B68002BC4D01D2B01D0162B79
:101EC80001D12F60B1E7A38943F04003A381ADE7B7
:101ED8000F69002FA9D093070E6808BF4B690F60E0
:101EE80018BF0023A6EB07088B60B8F1000F9CDD34
:101EF800216AA66A43463A462846B047002806DCC7
:101F0800A38943F04003A3814FF0FF308EE70744D5
:101F1800A8EB0008E9E700BF0100402038B50B69CD
:101F280005460C4613B90025284638BD18B1836903
:101F38000BB900F087F8144B9C421BD16C68B4F9BC
:101F48000C30002BEFD0626ED00704D4990502D470
:101F5800A06D00F015F928462146FFF759FF636E7A
:101F6800DA070546E0D4A3899B05DDD4A06D00F00F
:101F780008F9D9E7054B9C4201D1AC68DFE7044B6F
:101F88009C4208BFEC68DAE7402600086026000893
:101F980020260008002310B50446C0E90033C0E934
:101FA8000433836081814366C281836119460822B4
:101FB8005C30FFF7EFFD054B6362054BA362054BF1
:101FC800E362054B2462236310BD00BFC9230008E8
:101FD800EB2300082324000847240008014900F0E7
:101FE800AFB800BF251F000870B54A1E68255543C5
:101FF8000E4605F1740100F079F9044640B100215C
:10200800C0E900160C30A06005F16802FFF7C2FDB8
:10201800204670BD014800F0B3B800BF2002002080
:10202800014800F0AEB800BF20020020014800F0CF
:10203800A7B800BF1B020020014800F0A2B800BFEB
:102048001B02002010B50446FFF7F0FFA3691BB17F
:10205800BDE81040FFF7F0BFC4E912332365134B06
:10206800134A1B68A262A34204BF0123A36120464E
:1020780000F020F86060204600F01CF8A0602046C0
:1020880000F018F80022E06004216068FFF782FF82
:10209800A06801220921FFF77DFFE06802221221D2
:1020A800FFF778FF0123A361D2E700BF1C260008D1
:1020B800E51F0008F8B50746FFF7ACFF1E4B1E6882
:1020C800B36913B93046FFF7BDFF4836D6E9013486
:1020D800013B03D533680BB33668F7E7B4F90C5006
:1020E800D5B9164BE36004F15800656600F047F86F
:1020F800FFF796FFC4E90155C4E904552560A561B9
:102108000822294604F15C00FFF744FDC4E90D5597
:10211800C4E912552046F8BD6834D9E70421384689
:10212800FFF762FF044630600028D5D1FFF778FF3B
:102138000C233B60EEE700BF1C2600080100FFFFF0
:102148002DE9F8430646884600F148040027D4E9FB
:102158000195B9F1010905D52468002CF7D1384655
:10216800BDE8F883AB89012B07D9B5F90E300133E7
:1021780003D029463046C04707436835E9E770472A
:102188007047704770B50E46B1F90E10002996B029
:1021980014461D4607DA00232B60B3891A0610D4AB
:1021A8004FF480630EE06A4600F070F90028F2DB15
:1021B800019A02F47042A2F500535A425A412A6029
:1021C800EEE740230020236016B070BD8B8973B5FD
:1021D8009D0706460C4607D504F147032360236193
:1021E8000123636102B070BD01AB6A46FFF7CAFF05
:1021F80000990546304600F079F848B9B4F90C3032
:102208009A05EFD423F0030343F00203A381E3E725
:102218000D4BB362A389206043F08003A381009B28
:102228006361019B20615BB1B4F90E10304600F088
:102238003FF928B1A38923F0030343F00103A381E5
:10224800A0890543A581CDE7E51F000837B500291A
:1022580048D051F8043C0190002BA1F10404B8BF08
:10226800E41800F047F9204A01981368154633B975
:102278006360146003B0BDE8304000F041B9A34288
:102288000BD921686218934204BF1A685B686360BF
:1022980004BF521822602C60ECE71A465B680BB149
:1022A800A342FAD911685518A5420BD124682144D4
:1022B8005418A3421160DDD11C685B685360214447
:1022C8001160D7E702D90C230360D3E725686119A9
:1022D8008B4204BF19685B68636004BF49192160B9
:1022E8005460C7E703B030BD94000020F8B5CD1C9A
:1022F80025F0030508350C2D38BF0C25002D0646A2
:1023080001DBA94203D90C2333600020F8BD00F09B
:10231800F1F821490A6814469CB9204F3B6823B953
:102328002146304600F03CF838602946304600F037
:1023380037F8431C23D10C233360304600F0E0F813
:10234800E3E723685B1B17D40B2B03D923601C44DA
:10235800256004E06368A2420CBF0B6053603046FE
:1023680000F0CEF804F10B00231D20F00700C21A7C
:10237800CCD01B1AA350C9E722466468CCE7C41C1A
:1023880024F00304A042E3D0211A304600F008F8F4
:102398000130DDD1CFE700BF940000209800002075
:1023A80038B5064D0023044608462B6000F0C0F8F7
:1023B800431C02D12B6803B1236038BD24020020DE
:1023C80010B50C46B1F90E1000F0A0F80028ABBF0C
:1023D800636DA3891B1823F48053ACBF6365A38185
:1023E80010BD2DE9F0411F468B89DB0505460C46DB
:1023F800164605D5B1F90E100223002200F068F840
:10240800A389B4F90E1023F48053A38132463B46C6
:102418002846BDE8F04100F017B810B50C46B1F9F0
:102428000E1000F055F8431CA38915BF606523F40E
:10243800805343F48053A38118BFA38110BDB1F921
:102448000E1000F013B8000038B5074D04460846D2
:10245800114600222A601A46FEF7CEF9431C02D123
:102468002B6803B1236038BD2402002038B5064D1F
:102478000023044608462B60FEF7D4F9431C02D11A
:102488002B6803B1236038BD2402002038B5074DFE
:1024980000230446084611462B60FEF7C8F9431C82
:1024A80002D12B6803B1236038BD00BF240200208D
:1024B80038B5064D0023044608462B60FEF7BCF9E4
:1024C800431C02D12B6803B1236038BD24020020CD
:1024D80038B5074D04460846114600222A601A46B8
:1024E800FEF7A3F9431C02D12B6803B1236038BD62
:1024F800240200200148FFF743BE00BF1C02002051
:102508000148FFF73EBE00BF1C02002038B5074D4A
:1025180004460846114600222A601A46FEF780F94A
:10252800431C02D12B6803B1236038BD240200206C
:10253800044A05491368002B08BF0B46184410606D
:10254800184670479C00002028020020F8B500BFFC
:10255800F8BC08BC9E467047F8B500BFF8BC08BC7C
:042568009E467047D4
:10256C000D0AE682A8E58F91E98081E79A84E6B6A8
:10257C0088E681AFE4B8BA3A0D0000000D0A0D00F0
:10258C000D0A414C49454E54454B20E68EA2E7B40A
:10259C00A2E8808553544D333246343037E5BC8045
:1025AC00E58F91E69DBF20E4B8B2E58FA3E5AE9E22
:1025BC00E9AA8C0D00000000E6ADA3E782B9E58E18
:1025CC009FE5AD9040414C49454E54454B0D0A0D8D
:1025DC000A0D0000E8AFB7E8BE93E585A5E695B017
:1025EC00E68DAE2CE4BBA5E59B9EE8BDA6E994AEBA
:1025FC00E7BB93E69D9F0D0000000000000000006B
:10260C00010203040607080900000000010203048C
:10261C00100000200000000000000000000000007E
:10262C00000000000000000000000000000000009E
:10263C00000000000000000000000000000000008E
:10264C00000000000000000000000000000000007E
:10265C00000000000000000000000000000000006E
:10266C00000000000000000000000000000000005E
:04267C00000000005A
:0826800078DBFF7F0100000080
:04268800AD01000898
:04268C0089010008B8
:102690000024F400010000001000000010000020E1
:1026A00000000000402600086026000820260008E0
:1026B000000000000000000000000000000000001A
:1026C000000000000000000000000000000000000A
:1026D00000000000000000000000000000000000FA
:1026E00000000000000000000000000000000000EA
:1026F00000000000000000000000000000000000DA
:0400000508001B01D3
:00000001FF
